:020000040800F2
:1000000050040020E1000008C5090008BD090008EF
:1000100000000000000000000000000000000000E0
:10002000000000000000000000000000CD090008F2
:100030000000000000000000C7090008F1000008EF
:10004000F3000008F3000008F3000008F3000008C4
:10005000F300000821090008230900082509000809
:1000600000000000F3000008F3000008F30000089F
:10007000F3000008F30000087D0A000800000000FB
:10008000870A0008890A0008000000007F0A0008AB
:10009000810A0008830A0008850A0008C1090008CF
:1000A000C3090008C9090008CB090008A50A00080F
:1000B000A70A000800000000000000000000000087
:1000C000F300000800000000F30000080348854624
:1000D00000F014FC00480047ED2600085004002002
:1000E0000448804704480047FEE7FEE7FEE7FEE7D6
:1000F000FEE7FEE7D1090008CD000008F8B502468A
:100100004A40D40F42004B0052085B089A4202D288
:100110000246084611464A0023D0C30D4A00DDB20C
:10012000120EAD1A202D35DA49020126490AF605CC
:100130008A19002C00D0524220214F1B1146B94091
:100140002A411018C20D9A4221D0002C17D0012D3F
:1001500008DCDA05801AD20F8019D207DBB200F072
:1001600035FBF8BDDA05801A012340001B06C018D4
:1001700080185A428018CA0F1043490007E0490806
:10018000C2071143DA05801A80194008801800F070
:1001900015FBF8BD61000122511A001BF7E701228F
:1001A000D2075140AAE70122D2075040A6E70246F3
:1001B00070B54A40D30FDB0740002DD04A002AD04B
:1001C000010E140E000212020919400A520A841884
:1001D000E50104465443000A120A2E045043A419B0
:1001E0004219200CC543AA18120C0125AD03521C5C
:1001F000521912047F39240400D0521C104301D438
:100200004000491EC2B20C06C0092018401C40081C
:10021000802A02D003E0002070BD40084000002981
:1002200000DA0020184370BD70B502464A40D50F71
:1002300040004A00ED0740085208002814D0002A68
:1002400012D0C40DD30D41020120C0055202490A4B
:10025000520AE41A091812187D34914201D3641C21
:1002600000E04900002C01DA002070BD002391421B
:1002700001D3891A0343400849000028F7D1002917
:100280000AD0914202D10121C90705E0914201D271
:10029000012101E00121C943E005C018401900F027
:1002A0008DFA70BDF0B507460846584087B0C00FBC
:1002B000049048000E46590040084908BC1A88417D
:1002C00005D2384631461E4617460B4602465800B0
:1002D000400810434CD0300D039040055900400DAC
:1002E000490D0590401A0290402872DA1803012146
:1002F000000B09050843019004980092002805D0DE
:1003000001995242002088410092019002984021B8
:100310000A1A0199009800F01DFA05460C466B4632
:1003200007CB00F038FAC0197141039A0E0D002373
:10033000D71756401A467A40164344D0049A002AEA
:100340002DD0029A012A039A15DC1205C01A914198
:1003500001263605001C7141D20F059ED20700937D
:10036000019202962A46234600F076FA07B0F0BDC5
:1003700038463146FAE71605224A0F46B218C01A27
:10038000B74101210905001C4F4100187F4111466A
:1003900018187941E20F10436D19644113E0E20728
:1003A0006D0815436408C2071443039A0126120519
:1003B000C01A91413605001C7141CE0740083043F8
:1003C0004908C01851412A46234600F038FACDE7C3
:1003D000FFE7049801224000C117121A00238B4145
:1003E00004983146C417381AA141EEE730B401240D
:1003F000E407634030BC55E730B40124E4076140B2
:1004000030BC4FE70000E0FFF0B51FB488B00B9997
:100410000998002448400999C00F490049080991EA
:10042000C0070B990090490049080B910999089859
:10043000A64608431CD00B990A98084318D009987F
:1004400001244000420D4800410D09982405000395
:10045000000B204309900B980003000B20430B90E6
:1004600050181C494018002201901446104605E01F
:10047000002001460DB0F0BD032801DA034600E07C
:1004800003239C46C11A0AAE0AE05F0008ADED5B8B
:100490004F00F75B7D430027AA187C41491C5B1E77
:1004A0006145F2DD410004AB5A522104120C0A43AB
:1004B000240C401C0828DFDB01980290009970464C
:1004C00001910090059B049A0799069800F0C4F9E1
:1004D000D0E700000DFCFFFFF0B50C465C4085B096
:1004E000E40FE40703944C00002664085900944686
:1004F000490802460296224321D062460A431ED092
:100500006200570D4A000E032303550D01240246D5
:100510002C492405781B1B0B360B4018234326431C
:10052000614600901C46501AB44103D30098401C09
:10053000009002E0921800985B41002803DA002046
:10054000014605B0F0BD0020012109050746864699
:1005500011E064461D46141BB54106D36546521B87
:10056000B341744607430C43A646CD0740084908EB
:10057000284392185B4105460D43EAD110461843C3
:1005800013D06046194650407140084306D060467B
:10059000101AB34106D20122002306E000220123F3
:1005A000DB0702E00122D243531000987446010594
:1005B000381C6141029C039D0019694100F03FF91C
:1005C000BFE70000FD030000C217C10F504010B587
:1005D0004018CA079623002100F0F8F810BD10B5A6
:1005E00000229623114600F0F1F810BD0EB5C21797
:1005F000C10F5040CA0740180021054B02930192D9
:1006000000910A460B4600F027F903B000BD000038
:1006100033040000C20F410040020123400ADB0501
:10062000D207090EC0187F2901DA002070479629E9
:1006300003DC9623591AC84001E096398840002A05
:10064000F4D040427047410040020122400AD205E6
:10065000090E80187F2901DA00207047962903DCF3
:100660009622511AC840704796398840704700005A
:1006700070B5CD0F4A0009030123090B1B0519436F
:100680000B4BED070024520D9A4201DA002070BD99
:10069000074B34339A4203DC9A1A00F06BF802E0FD
:1006A0000449511888402C43F1D0404270BD0000ED
:1006B000FF030000CDFBFFFF4A0009030123090BE4
:1006C0001B051943094B10B5520D9A4201DA00205F
:1006D00010BD064B34339A4203DC9A1A00F04AF8F4
:1006E00010BD03495118884010BD0000FF030000F1
:1006F000CDFBFFFFC20FD207400040080BD0C10D59
:100700000723DB01C91840020905400A1143C2084A
:10071000400711437047002001467047CB0FDB07AD
:10072000490010B5490802460A4307D00A0D0724BC
:100730000903E401090B121B002A01DC002010BD93
:10074000C900440F0C43C100E018D205801800F026
:1007500035F810BD10B5202A04DB0146203A91403F
:10076000002010BD914020239C1A0346E34019430A
:10077000904010BD10B5202A04DB0846203AD04036
:10078000002110BD0B46D340D0402024A21A914036
:100790000843194610BD10B5202A06DBCB170846C2
:1007A000203A1041C1170B4306E00B461341D040DD
:1007B0002024A21A91400843194610BD002904DAEA
:1007C000401C490001D140084000704770B400242B
:1007D000050C05D11024000402D1002921D01124D8
:1007E000050E01D100020834050F01D10001241DBE
:1007F000850F01D18000A41C002801DB4000641C8F
:10080000002908D020252E1B0D46F540A14000D020
:1008100001212943084301061B1B000ADB1D02D5E9
:10082000002070BC7047DB05181880180029F8DA22
:10083000401C4900F5D170BC40084000704710B51D
:10084000002B08DA0024401C614192185B411A43D6
:1008500001D14008400010BDF0B51FB482B005467C
:100860000C0003D0084603F09FFE02E003F09CFE5C
:1008700020300246009021462846FFF76BFF049B7C
:10088000059A04460F4618431143084314D01846EE
:1008900010431BD0009840210A1A18460599FFF70B
:1008A00069FF05460E46009A05990498FFF752FF26
:1008B000084305D0012004E02046394607B0F0BDCA
:1008C0000020C11705430E432C43374300990E986F
:1008D0006305401A7905E40A00220C43FD0A0A3038
:1008E00002D500200146E9E70105101969410C9C79
:1008F0000D9D00196941FFF7A2FFDFE7064C0125B6
:10090000064E05E0E36807CC2B430C3C98471034B7
:10091000B442F7D3FFF7DEFBF445000814460008A5
:100920007047704780B584B0402001F071FA60B321
:10093000FFE71E480121002201F0ECFA1C48007874
:1009400090B9FFE7554802900021039103F0E5F9C3
:10095000029803F068FA0398154A01211170504972
:100960000860144908600FE04C48019003F052FA07
:1009700001980F4A0021117003F0C5F90D49086074
:100980000D4901200870FFE7FFE7402001F038FA29
:1009900048F2000001F03CFA28B1FFE748F20000FD
:1009A00001F02EFAFFE704B080BDC0460004004805
:1009B000200000202C00002030000020FFE7FEE790
:1009C0007047704770477047704770477047000026
:1009D00080B582B020490868012210430860FFE713
:1009E0001D4800688007002801D4FFE7F8E71B498D
:1009F00008681B4A1040086008681A4A10400860DE
:100A000015490868184A10400860184908680F22FC
:100A1000904308601649086840F20312904308604A
:100A20000868012200921304984308600868D307FD
:100A3000984308600F490868904308600E490020F9
:100A40000190086002F0D8FE00980199C00602F0FB
:100A5000D5F802B080BDC04600100240041002402C
:100A60000C00FF08FFFFC277FFFFF2FE2C100240D0
:100A700030100240341002400810024070477047A6
:100A8000704770477047704780B50448012103F0F4
:100A900079FA03490868401C086080BD00100040D6
:100AA000340000207047704781B0014668460170ED
:100AB000007840B200280DD4FFE76846007841B2C4
:100AC0001F200A4602400120904049098900024A3D
:100AD0008850FFE701B0704700E100E070B582B0D8
:100AE000024601A802700091007840B2002817D495
:100AF000FFE701A9087840B20322D3431840184AFF
:100B00008058097849B28C07E50EFF24AC40A04319
:100B1000009CA401E4B2AC402043194088501AE084
:100B200001A908780F24204008380322D343184035
:100B30000A4A8058097849B28D07EE0EFF25B54064
:100B4000A843009DAD01EDB2B540284321400839CE
:100B500019408850FFE702B070BDC0461CED00E0B0
:100B600000E400E082B000900098002803D4FFE782
:100B70000098019003E0009840420190FFE701983F
:100B800002B0704769490868082210430860FFE70F
:100B9000664800680007002801D5FFE7F8E76349C9
:100BA0000868042210430860FFE7604800684007B7
:100BB000002801D5FFE7F8E77047C04680B582B04E
:100BC0000190019800F0D4F802B080BD80B582B0E9
:100BD000019001A801780022104600F0E7F90120F9
:100BE00000F098FA022000F0A3F8FFE7022000F0DE
:100BF000A9F808B9FFE7F9E700F086FA02B080BD6E
:100C000081B00090009838B1FFE74849086840F685
:100C100000021043086006E04449086840F60002FC
:100C200090430860FFE701B07047C04680B582B0CE
:100C30000448019002F08EFB019802F079FB02B0AB
:100C400080BDC0460903000038480068C00730B9BD
:100C5000FFE736490868012210430860FFE7704744
:100C600082B001AA1070684601700078D0B1FFE729
:100C700001A80078C00738B1FFE72C4908680122B5
:100C8000120510430860FFE701A8007880070028DC
:100C900007D5FFE72549086848F2000210430860BD
:100CA000FFE719E001A80078C00738B1FFE71F4946
:100CB00008680122120590430860FFE701A8007848
:100CC0008007002807D5FFE71849086848F20002A6
:100CD00090430860FFE7FFE702B0704783B0024629
:100CE00002A80270019100780090012804D0FFE76B
:100CF000009802280BD015E00C490868072252041E
:100D000090430860019A0868104308600BE00749A7
:100D1000086847F2000290430860019A086810438F
:100D2000086000E0FFE703B07047C04608240140B8
:100D300081B00090009A0D4908689043086001B0A6
:100D40007047C04682B0019069460020087007488D
:100D500000680199084204D0FFE769460120087045
:100D6000FFE76846007802B07047C04600240140A3
:100D700080B584B0039002F059FD0398082804D090
:100D8000FFE70398092804D1FFE7564802F0BEFAAE
:100D900003E0534802F0BAFAFFE7039840B9FFE7CF
:100DA0000920C00603210022012301F029FB72E083
:100DB0000398012808D1FFE70920C006032100227B
:100DC000022301F01DFB65E00398022808D1FFE72C
:100DD0000920C00603210022042301F011FB58E082
:100DE0000398032808D1FFE70920C0060321002249
:100DF000082301F005FB4BE00398042808D1FFE726
:100E00000920C00603210022102301F0F9FA3EE078
:100E10000398052808D1FFE70920C0060321002216
:100E2000202301F0EDFA31E00398062808D1FFE70E
:100E30000920C00603210022402301F0E1FA24E04A
:100E40000398072808D1FFE70920C00603210022E4
:100E5000802301F0D5FA17E00398082807D1FFE7AF
:100E6000214803210022012301F0CAFA0BE0039874
:100E7000092807D1FFE71C4803210022022301F0C3
:100E8000BFFAFFE7FFE7FFE7FFE7FFE7FFE7FFE75F
:100E9000FFE7FFE7FFE7154802F038FA062001F008
:100EA000F3FFFFF7C3FE02200021019100F050F98B
:100EB000019940F2001000F04BF90198FFF7A0FEF5
:100EC0000720410401200290FFF708FF029908461D
:100ED000FFF7C6FEFFF7B8FEFFF754FE04B080BD73
:100EE000110500001205000000040048090600007A
:100EF00080B588B0069005A8017003AA0021118072
:100F00000078002804DCFFE707A90020088048E0FB
:100F10000698FFF75BFE03A90880039802A90880E2
:100F2000039801A9088004A901200870FFE704A81C
:100F30000078042827DCFFE70698FFF747FE014604
:100F400068460180009A0399891803AA11800088D5
:100F500002A90988884204DDFFE7009802A90880F9
:100F60000BE06846008801A90988884204DAFFE797
:100F7000009801A90880FFE7FFE7FFE70498401CFD
:100F800004A90870D3E70198029941180398411AFF
:100F900003A8018000880321B0FBF1F007A90880B5
:100FA000FFE707A8008808B080BD000010B585B035
:100FB000034604A8037003AB197002920078052859
:100FC00018D8FFE74D490868019004AB1C7805204C
:100FD000024662431F249440019AA243019203AA4D
:100FE00012781B7858438240019810430190019871
:100FF000086040E004A800780B281AD8FFE73E49B3
:101000000868019004AB1C780520024662431E3A32
:101010001F249440019AA243019203AA12781B78DC
:1010200058431E388240019810430190019808608F
:1010300020E004A800780F281AD8FFE72D49086897
:10104000019004AB1C780520024662433C3A1F2401
:101050009440019AA243019203AA12781B78584344
:101060003C3882400198104301900198086000E0EC
:10107000FFE7FFE7FFE703A80078092817D8FFE795
:1010800020490868009003AB1C78032002466243A5
:1010900007249440009AA2430092029A1B78584376
:1010A0008240009810430090009808601FE003A859
:1010B0000078122819D8FFE711490868009003AB9F
:1010C0001C780320024662431E3A07249440009A8B
:1010D000A2430092029A1B7858431E38824000981F
:1010E000104300900098086000E0FFE7FFE705B0BC
:1010F00010BDC0462C24014030240140342401405E
:101100000C240140102401400148006880B270475F
:101110004C24014081B00146684601700078C00748
:1011200038B1FFE73649086801229205104308608C
:10113000FFE7684600788007002807D5FFE73049B9
:1011400008680122520510430860FFE701B07047AC
:1011500082B0019068460170007830B3FFE701A8C3
:101160004078C00738B1FFE72449086840F2001210
:1011700010430860FFE701A840784007002807D522
:10118000FFE71E49086840F2004210430860FFE78D
:1011900001A800788007002806D5FFE718490868ED
:1011A000022210430860FFE725E001A84078C0074D
:1011B00038B1FFE71149086840F200129043086017
:1011C000FFE701A840784007002807D5FFE70B4953
:1011D000086840F2004290430860FFE701A80078E9
:1011E0008007002806D5FFE70549086802229043DA
:1011F0000860FFE7FFE702B07047C04604240140E3
:101200000824014080B582B00920C0060A2140F2BE
:10121000001200F0BBFE0021009103480E22034B98
:1012200001F054FD02B080BD002C0140204E0000B2
:1012300080B594B0034613A8037012911192007800
:1012400010BBFFE700201090FFE71098129988422A
:1012500019D2FFE7E9480E9003F052F90E9803F017
:101260004FF9119800F0DAFC98480F9003F048F914
:101270000F9803F045F9119800F0D0FCFFE71098A3
:10128000401C1090E1E711E113A80078012822D159
:10129000FFE700201090FFE710981299884219D2BA
:1012A000FFE7D5480C9003F02BF90C9803F028F9D0
:1012B000119800F0B3FC85480D9003F021F90D98CA
:1012C00003F01EF9119800F0A9FCFFE71098401CEC
:1012D0001090E1E7E9E013A80078022822D1FFE7A7
:1012E00000201090FFE710981299884219D2FFE76A
:1012F000C0480A9003F004F90A9803F001F9119824
:1013000000F08CFC71480B9003F0FAF80B9803F096
:10131000F7F8119800F082FCFFE71098401C10903D
:10132000E1E7C1E013A80078032822D1FFE70020FD
:101330001090FFE710981299884219D2FFE7AB4846
:10134000089003F0DDF8089803F0DAF8119800F03F
:1013500065FC5E48099003F0D3F8099803F0D0F8D3
:10136000119800F05BFCFFE71098401C1090E1E73B
:1013700099E013A80078042822D1FFE700201090FC
:10138000FFE710981299884219D2FFE79848069013
:1013900003F0B6F8069803F0B3F8119800F03EFC9D
:1013A0004A48079003F0ACF8079803F0A9F81198A1
:1013B00000F034FCFFE71098401C1090E1E771E06A
:1013C00013A80078052822D1FFE700201090FFE73E
:1013D00010981299884219D2FFE78348049003F0CD
:1013E0008FF8049803F08CF8119800F017FC374838
:1013F000059003F085F8059803F082F8119800F045
:101400000DFCFFE71098401C1090E1E749E013A89D
:101410000078062822D1FFE700201090FFE71098FF
:101420001299884219D2FFE76E48029003F068F8DB
:10143000029803F065F8119800F0F0FB2348039040
:1014400003F05EF8039803F05BF8119800F0E6FBF8
:10145000FFE71098401C1090E1E721E00020109079
:10146000FFE710981299884219D2FFE75C48009074
:1014700003F046F8009803F043F8119800F0CEFB13
:101480001248019003F03CF8019803F039F81198E4
:1014900000F0C4FBFFE71098401C1090E1E7FFE765
:1014A000FFE7FFE7FFE7FFE7FFE7FFE714B080BDD7
:1014B00080B582B00548019003F022F8019803F04E
:1014C0001FF8322000F0AAFB02B080BD46000020C9
:1014D00080B58AB0024609A802700891007858B910
:1014E000FFE74648079003F00BF8079803F008F869
:1014F000089800F093FB70E009A8007801280BD150
:10150000FFE73D48069002F0FBFF069802F0F8FF67
:10151000089800F0BDFB5FE009A8007802280BD115
:10152000FFE73448059002F0EBFF059802F0E8FF72
:10153000089800F073FB4EE009A8007804280BD14E
:10154000FFE7F648049002F0DBFF049802F0D8FFB2
:10155000089800F063FB3DE009A8007803280BD150
:10156000FFE7EF48039002F0CBFF039802F0C8FFBB
:10157000089800F053FB2CE009A8007805280BD14F
:10158000FFE7E548029002F0BBFF029802F0B8FFC7
:10159000089800F043FB1BE009A8007806280BD14F
:1015A000FFE7DC48019002F0ABFF019802F0A8FFD2
:1015B000089800F033FB0AE0D448009002F0A0FF46
:1015C000009802F09DFF089800F028FBFFE7FFE776
:1015D000FFE7FFE7FFE7FFE7FFE70AB080BDC04690
:1015E000130000200D000020070000200A0000204A
:1015F0000400002016000020190000201000002028
:1016000080B582B000200549019100F0E9FF019901
:10161000012000F0E5FF02B080BDC04610270000A9
:1016200080B584B002F002F91B4802F0DDFC012015
:101630000390FFF7C3FA0520029000F0EFFA0420B0
:101640000190FFF7BBFA029800F0E8FA0298FFF762
:10165000B5FA022000F062FF032000F05FFF01985E
:1016600000F05CFF029800F059FFFFF7CBFD01F09E
:1016700099FE002000F0E0FF039800F0DDFF02F08B
:101680002DFFFFF715FF02F09FFC02F015FE00F0A2
:1016900043FF04B080BDC0460038014080B58CB027
:1016A00003460BA803700A910992007808BBFFE774
:1016B00000200890FFE708980A99884218D2FFE7AF
:1016C0009A4802F01DFF9248079002F019FF09980E
:1016D00000F0A4FA079802F013FF079802F010FF39
:1016E000099800F09BFAFFE70898401C0890E2E791
:1016F0000AE10BA80078012821D1FFE7002008901B
:10170000FFE708980A99884218D2FFE7864802F056
:10171000F7FE7F48069002F0F3FE099800F07EFA8B
:10172000069802F0EDFE069802F0EAFE099800F035
:1017300075FAFFE70898401C0890E2E7E3E00BA881
:101740000078022821D1FFE700200890FFE70898E1
:101750000A99884218D2FFE7724802F0D1FE6C481D
:10176000059002F0CDFE099800F058FA059802F0B5
:10177000C7FE059802F0C4FE099800F04FFAFFE793
:101780000898401C0890E2E7BCE00BA8007803280A
:1017900021D1FFE700200890FFE708980A998842C6
:1017A00018D2FFE75E4802F0ABFEFD48049002F05D
:1017B000A7FE099800F032FA049802F0A1FE0498FE
:1017C00002F09EFE099800F029FAFFE70898401CF5
:1017D0000890E2E795E00BA80078042821D1FFE704
:1017E00000200890FFE708980A99884218D2FFE77E
:1017F000EF4802F085FEEA48039002F081FE099866
:1018000000F00CFA039802F07BFE039802F078FED9
:10181000099800F003FAFFE70898401C0890E2E7F7
:101820006EE00BA80078052821D1FFE70020089082
:10183000FFE708980A99884218D2FFE7DB4802F0D0
:101840005FFED748029002F05BFE099800F0E6F9CF
:10185000029802F055FE029802F052FE099800F03C
:10186000DDF9FFE70898401C0890E2E747E00BA885
:101870000078062821D1FFE700200890FFE70898AC
:101880000A99884218D2FFE7C74802F039FEC448D7
:10189000019002F035FE099800F0C0F9019802F0BD
:1018A0002FFE019802F02CFE099800F0B7F9FFE72F
:1018B0000898401C0890E2E720E000200890FFE72D
:1018C00008980A99884218D2FFE7B64802F018FE35
:1018D000B348009002F014FE099800F09FF90098B8
:1018E00002F00EFE009802F00BFE099800F096F947
:1018F000FFE70898401C0890E2E7FFE7FFE7FFE7F3
:10190000FFE7FFE7FFE7FFE70CB080BD1300002013
:10191000460000200D0000200700002004000020E9
:101920000A000020160000201900002010000020EE
:1019300080B58CB003460BA803700A910992007819
:1019400008BBFFE700200890FFE708980A99884243
:1019500018D2FFE79248079002F0D2FD984802F0B3
:10196000CFFD099800F05AF9079802F0C9FD0798D1
:1019700002F0C6FD099800F051F9FFE70898401CF5
:101980000890E2E70AE10BA80078012821D1FFE7DF
:1019900000200890FFE708980A99884218D2FFE7CC
:1019A0007F48069002F0ACFD844802F0A9FD09983A
:1019B00000F034F9069802F0A3FD069802F0A0FDAD
:1019C000099800F02BF9FFE70898401C0890E2E71F
:1019D000E3E00BA80078022821D1FFE7002008905F
:1019E000FFE708980A99884218D2FFE76C480590EB
:1019F00002F086FD704802F083FD099800F00EF9B0
:101A0000059802F07DFD059802F07AFD099800F036
:101A100005F9FFE70898401C0890E2E7BCE00BA836
:101A20000078032821D1FFE700200890FFE70898FD
:101A30000A99884218D2FFE75948049002F060FDE5
:101A40005C4802F05DFD099800F0E8F8049802F0A7
:101A500057FD049802F054FD099800F0DFF8FFE705
:101A60000898401C0890E2E795E00BA8007804284D
:101A700021D1FFE700200890FFE708980A998842E3
:101A800018D2FFE74648039002F03AFD484802F0BA
:101A900037FD099800F0C2F8039802F031FD039871
:101AA00002F02EFD099800F0B9F8FFE70898401CF5
:101AB0000890E2E76EE00BA80078052821D1FFE747
:101AC00000200890FFE708980A99884218D2FFE79B
:101AD0003348029002F014FD344802F011FD0998D9
:101AE00000F09CF8029802F00BFD029802F008FD4D
:101AF000099800F093F8FFE70898401C0890E2E787
:101B000047E00BA80078062821D1FFE700200890C5
:101B1000FFE708980A99884218D2FFE72048019009
:101B200002F0EEFC204802F0EBFC099800F076F899
:101B3000019802F0E5FC019802F0E2FC099800F03F
:101B40006DF8FFE70898401C0890E2E720E00020CD
:101B50000890FFE708980A99884218D2FFE71048D2
:101B6000009002F0CDFC0F4802F0CAFC099800F08A
:101B700055F8009802F0C4FC009802F0C1FC0998E6
:101B800000F04CF8FFE70898401C0890E2E7FFE7F8
:101B9000FFE7FFE7FFE7FFE7FFE7FFE70CB080BDE8
:101BA00046000020130000200D0000200700002048
:101BB000040000200A000020160000201900002068
:101BC0001000002080B582B000210191084600F08D
:101BD00007FD0199012000F003FD02B080BD000067
:101BE00080B582B001200C49019100F0F9FC019907
:101BF000002000F0C9FC02B080BDC04680B582B0B4
:101C000000200549019100F0EBFC0199012000F052
:101C1000BBFC02B080BDC046AC0D000080B584B0F6
:101C200003900398FEF7DBFC18490968FEF7BFFA3A
:101C3000FEF709FD33490860334900200860334945
:101C400001200860FFE7314800680290FFE70020AC
:101C500002A90978C907019041B1FFE702A880787D
:101C600001210840414248410190FFE70198C00727
:101C70000028E8D1FFE72549086801229043086061
:101C800021490020086004B080BDC0462400002027
:101C900080B584B003900398FEF7A1FC1849096849
:101CA000FEF785FAFEF7CFFC1649086016490020BA
:101CB0000860164901200860FFE714480068029098
:101CC000FFE7002002A90978C907019041B1FFE7A9
:101CD00002A8807801210840414248410190FFE775
:101CE0000198C0070028E8D1FFE7084908680122E9
:101CF0009043086004490020086004B080BDC046DD
:101D00002800002014E000E018E000E010E000E00F
:101D100085B0049003A8017002A90A70049B4C4A84
:101D2000116899431160049B2D4A11689943116011
:101D3000049B2C4A116899431160049B2A4A11683C
:101D4000994311600078019020B1FFE701980128C4
:101D500006D00BE0049A3E4908681043086006E08C
:101D6000049A1F4908681043086000E0FFE702A8D2
:101D70000078009003282FD800998A0001A08018CD
:101D80008746C04600F006B800F00FB800F018B85B
:101D900000F021B8049A1349086810430860049AB7
:101DA000114908689043086017E0049A0D490868D3
:101DB00090430860049A0C490868104308600CE0DE
:101DC000049A0849086810430860049A064908689C
:101DD0001043086001E0FFE7FFE705B07047C04629
:101DE00004040140080401400C04014081B000904B
:101DF000009A174908681043086001B07047C04650
:101E000081B0009000981149086001B07047C04649
:101E100084B002900D4800680299084001900C4877
:101E20000068029908400090019838B1FFE70098D7
:101E300020B1FFE703A90120087003E003A90020F7
:101E40000870FFE703A8007804B07047140401404D
:101E50000004014086B00590049103920598006A41
:101E600001900598406A009002A900200880FFE7D1
:101E700002A8008807281DD8FFE702A80188039858
:101E8000C840C00780B1FFE702A8018889000F227F
:101E90008A40019991430191049900888000814012
:101EA000019808430190FFE7FFE70298401C02A950
:101EB0000880DDE702A908200880FFE702A8008863
:101EC0000F281FD8FFE702A801880398C840C00761
:101ED00090B1FFE702A80188890020390F228A40CB
:101EE0000099914300910499008880002038814036
:101EF000009808430090FFE7FFE70298401C02A902
:101F00000880DBE701980599086200980599486206
:101F100006B0704780B584B00390029101A80270AA
:101F2000007828B1FFE70398029900F010F804E068
:101F30000398029900F003F8FFE704B080BD82B077
:101F40000190009100980199886202B0704782B0B8
:101F50000190009100980199886102B0704780B5A6
:101F600084B0029001910298019900F034FA20B1F6
:101F7000FFE703A90120087003E003A9002008700F
:101F8000FFE703A8007804B080BD000080B592B0E0
:101F9000119010A801700F9211980921C90688426A
:101FA00004D1FFE7F04801F0B1F91DE01198EF49C5
:101FB000884204D1FFE7EE4801F0A8F913E0119838
:101FC000EC49884204D1FFE7EB4801F09FF909E0B2
:101FD0001198EA49884204D1FFE7E94801F096F9EF
:101FE000FFE7FFE7FFE7FFE710A8007838B9FFE752
:101FF00011980F9B0321002200F002FAE9E110A8DA
:102000000078012807D1FFE711980F9B00221146A5
:1020100000F0F6F9DCE110A80078022807D1FFE70C
:1020200011980F9B0021022200F0EAF9CFE110A8DD
:102030000078032807D1FFE711980F9B00210122A8
:1020400000F0DEF9C2E110A8007804280ED1FFE705
:1020500011980F9B012100220E9200F0D1F90E99E8
:1020600011980F9B032200F012FAAEE110A800783D
:1020700005280DD1FFE711980F9B0022114600F0B3
:10208000BFF911980F9B0121032200F000FA9BE198
:1020900010A80078062813D1FFE711980F9B0221A2
:1020A00000220D9200F0ACF90D9911980F9B0322BC
:1020B00000F0EDF90D9911980F9AFFF7CBFE82E130
:1020C00010A80078072813D1FFE711980F9B022171
:1020D00000220C9200F094F911980F9B0121032229
:1020E00000F0D5F90C9911980F9AFFF7B3FE69E14A
:1020F00010A80078082813D1FFE711980F9B022140
:1021000000220B9200F07CF90B9911980F9B03228F
:1021100000F0BDF911980F9A0121FFF79BFE50E1E5
:1021200010A80078092813D1FFE711980F9B02210E
:10213000002200F065F911980F9B01210A910322FA
:1021400000F0A5F90A9911980F9AFFF783FE37E17D
:1021500010A800780A2814D1FFE711980F9B0221DC
:1021600009910022089200F04BF9089911980F9BF1
:10217000032200F08CF9099911980F9AFFF76AFE73
:102180001DE110A800780B2813D1FFE711980F9BD1
:1021900002210791002200F033F911980F9B0121D1
:1021A000032200F074F9079911980F9AFFF752FE75
:1021B00004E110A800780C2814D1FFE711980F9BB8
:1021C00002210022059200F01BF9059911980F9B3E
:1021D0000322069200F05BF9069911980F9AFFF717
:1021E00039FEEAE010A800780D2813D1FFE7119816
:1021F0000F9B0221002200F003F911980F9B01218F
:102200000322049200F043F9049911980F9AFFF702
:1022100021FED1E010A800780E2813D1FFE7119815
:102220000F9B02210022039200F0EAF80399119813
:102230000F9B032200F02BF911980F9A0421FFF74E
:1022400009FEB8E010A800780F2812D1FFE7119816
:102250000F9B0221002200F0D3F811980F9B01215F
:10226000032200F014F911980F9A0421FFF7F2FDF0
:10227000A0E010A80078102813D1FFE711980F9B59
:1022800002210022029200F0BBF8029911980F9BE4
:10229000032200F0FCF811980F9A0521FFF7DAFDF0
:1022A00087E010A80078112812D1FFE711980F9B42
:1022B0000221002200F0A4F811980F9B01210322B3
:1022C00000F0E5F811980F9A0521FFF7C3FD6FE0C4
:1022D00010A80078122813D1FFE711980F9B022154
:1022E0000022019200F08CF8019911980F9B0322B3
:1022F00000F0CDF811980F9A0621FFF7ABFD56E0DC
:1023000010A80078132812D1FFE711980F9B022123
:10231000002200F075F811980F9B0121032200F0B4
:10232000B6F811980F9A0621FFF794FD3EE010A829
:102330000078142813D1FFE711980F9B0221002287
:10234000009200F05DF8009911980F9B032200F0B5
:102350009EF811980F9A0721FFF77CFD25E010A841
:102360000078152820D10DE0110500000004004878
:102370001205000000080048130500000014004882
:102380001605000011980F9B0221002200F038F87A
:1023900011980F9B0121032200F079F811980F9AF0
:1023A0000721FFF757FDFFE7FFE7FFE7FFE7FFE73D
:1023B000FFE7FFE7FFE7FFE7FFE7FFE7FFE7FFE7ED
:1023C000FFE7FFE7FFE7FFE7FFE7FFE7FFE7FFE7DD
:1023D000FFE712B080BD83B00190009101980069C1
:1023E0000099084204D0FFE702A90120087003E029
:1023F00002A900200870FFE702A8007803B0704728
:1024000087B00690059104920393069800680190A6
:102410000698C068009002A900200880FFE702A883
:1024200000880F282BD8FFE702A801880398C8402E
:10243000C007F0B1FFE702A8018849000322134654
:102440008B40019999430191059B018849008B407C
:10245000019919430191018849008A4000999143EB
:102460000091049900884000814000980843009042
:10247000FFE7FFE70298401C02A90880CFE7019818
:102480000699086000980699C86007B0704710B5B3
:1024900086B0059004A80170039202930078012889
:1024A00006D1FFE7029A059948681043486005E0A5
:1024B000029A0599486890434860FFE7059880684C
:1024C000009001A900200880FFE701A800880F28DC
:1024D0001DD8FFE701A801880298C840C00780B155
:1024E000FFE701A80188490003228A40009991432F
:1024F00000910399008840008140009808430090B3
:10250000FFE7FFE70198401C01A90880DDE700987C
:102510000599886006B010BD7047000080B582B094
:10252000014601A801700078022807D1FFE7694839
:10253000032140F20042FFF729FDFFE701A80078E0
:10254000032807D1FFE76348032140F60002FFF7A5
:102550001DFDFFE701A80078042807D1FFE75D48CB
:10256000032141F20002FFF711FDFFE701A8007807
:10257000052807D1FFE75748032142F20002FFF781
:1025800005FDFFE702B080BD80B584B0024603A818
:10259000027002AA1180007801280DD1FFE752488D
:1025A00000220192114600F039FB019902A802882D
:1025B0004C4800F033FB11E003A8007868B9FFE74E
:1025C000454800220092114600F028FB009902A81D
:1025D0000288434800F022FBFFE7FFE704B080BD1C
:1025E00080B584B0024603A8027002AA1180007868
:1025F00001280DD1FFE702A802883B480021019184
:1026000000F00CFB019A3748114600F007FB11E07F
:1026100003A8007868B9FFE702A802882E480021C5
:10262000009100F0FBFA009A2D48114600F0F6FAEE
:10263000FFE7FFE704B080BD80B58CB001460BA872
:102640000170007801281ED1FFE722480790082179
:1026500044F20002FFF79AFC079806210222FFF7D6
:1026600095FC0021089100911E48482209921B4BBD
:102670000A9300F02BFB0899099A0A9B00911A48CB
:1026800000F024FB24E00BA8007800BBFFE7114812
:1026900002900A21039140F20012FFF777FC0298A2
:1026A000039940F20022FFF771FC00210491009190
:1026B000094848220592094B069300F007FB04994C
:1026C000059A069B0091064800F000FBFFE7FFE734
:1026D0000CB080BD0004004800440140C409000063
:1026E00000480140004001400020004080B5B2B0E9
:1026F000002018903190012130912F912E902D9033
:10270000EE4A2A92289027902390229021902090A0
:102710001F901E91EA4908701D90EA481C90812084
:10272000C0051B90FEF77CFF0220032140F29012AF
:10273000FEF77EFDFFE7FEF7BBFE0521149108467C
:10274000FEF7D6FBFDF752FF00221692DE4B1593E3
:10275000FDF7C2FE169ADD4B1793FDF755FEFDF708
:1027600087FF149924900120FEF7C2FBFDF73EFF7E
:10277000159B169AFDF7B0FE169A179BFDF744FEBF
:10278000FDF776FF26902499269A8B1A64205843E9
:102790008918491C90FBF1F029902998652803DBE2
:1027A000FFE764202990FFE729986421C943884204
:1027B00004DCFFE76320C0432990FFE729984043EA
:1027C000FDF714FFED4AEE4BFDF71EFE01229307C5
:1027D0000022FDF767FDFDF7A1FF1D901E9801285F
:1027E0001BD1FFE72998FEF7BDF9142803DBFFE7AB
:1027F000E7481B9010E02998FEF7B4F9FDF7F6FEC4
:102800000022E04BFDF768FEDF4AE04BFDF74AFD92
:10281000FDF784FF1B90FFE7FFE71D980A902998BA
:102820000B90FDF7D1FE01460A98FDF7C0FCFDF7BD
:1028300061FF129013911C98FDF75CFF02460B9804
:1028400010921191FDF7D2FE0E900F912898FDF78E
:10285000CDFED04AD04BFDF7D7FD0C900D912798B7
:10286000FDF7C4FECD4ACE4BFDF7CEFD02460C98D7
:102870000B460D99FDF716FD02460E980B460F9973
:10288000FDF710FD024610980B461199FDF7BCFDAF
:10289000024612980B461399FDF704FD0022C14B26
:1028A000FDF7B2FDFDF7E4FE2E902A982E99401A0E
:1028B0002C902A982E9940182B9028982790299888
:1028C00028902C98B849884203DBFFE7B7482C9042
:1028D000FFE72C98002803D5FFE700202C90FFE7A6
:1028E0002B98B149884203DBFFE7F7482B90FFE7BD
:1028F0002B98002803D5FFE700202B90FFE72C98AA
:10290000FDF762FE1B99FDF752FCFDF783FE81B2D5
:102910000020FFF765FE2B98FDF756FE1B99FDF78B
:1029200046FCFDF777FE81B20120FFF759FE2398A0
:1029300001284ED1FFE72298012819D1FFE72198FD
:102940000B2803DBFFE700202290FFE721998E4848
:1029500048439D4940189D49884205D8FFE701201A
:102960000F21FEF7B5FDFFE72198401C2190E2E61C
:102970002098012815D1FFE7002009908C49089183
:10298000FFF702FE08990120FFF7FEFD9620FFF7F2
:1029900045F900F020FD09982090239085481C906F
:1029A000FFE71F98012813D1FFE700200790804917
:1029B0000691FFF7E9FD06990120FFF7E5FD962056
:1029C000FFF72CF900F0AEFD07981F902390B2E6B8
:1029D000FFE700F0D3FC6748007801283BD1FFE710
:1029E0003098012806D1FFE700F0E5FC3098401C44
:1029F0003090A0E63098022807D1FFE7012022900E
:102A000023903098401C309095E63098032807D1E9
:102A1000FFE70120209023903098401C30908AE6F8
:102A20003098042809D1FFE701201F9023903098A7
:102A3000401C309001F040FC7DE63098052805D11F
:102A4000FFE7FFF7BFF8002032B080BDFFE7FFE7E8
:102A5000FFE7FFE7FFE73098042804D1FFE72F984E
:102A6000012808D0FFE73098052800D081E02F9892
:102A700002287ED1FFE701F0B5FB2D902D984E493D
:102A8000884212D8FFE72D984C4988420DD3FFE7C2
:102A900000201E903098042803D1FFE749481B907E
:102AA00002E03B481B90FFE745E62D9844498842E9
:102AB0005DD8FFE72F98012837D109E0581B0000A7
:102AC000380000206666F6400058AB4000005940D0
:102AD0000020EC490391FFF757FD03990120059071
:102AE000FFF752FD40F27210FFF798F80520FEF74D
:102AF0006DF8014605980491FEF768F801460498C0
:102B0000411A642048432499269A8918491C90FB4D
:102B1000F1F01A901A9800F071FC05982F99491C51
:102B20002F9115491C911E9020E02F9802281CD14E
:102B3000FFE700200290D3490191FFF725FD01999D
:102B40000120FFF721FDEB20FFF768F801F04AFBB9
:102B50001990199800F0FAFC02982F99491C2F91AE
:102B60001E903F2000061B90FFE7FFE7FFE7FFE70F
:102B7000FFE7E0E5380000206666F64092CB7F482C
:102B8000BF7D6D3F000044C0CDCCCCCCCCCCEC3F65
:102B9000CDCCCC3E666666666666E6BF33333333BD
:102BA0003333D3BF00004940112700001027000035
:102BB000DC0500000000CC41B4140000480D00000A
:102BC000470D00009A99993E9999991932333333F8
:102BD00080B584B00A46014603A80190017002A99D
:102BE0000A70007840B20978FDF778FF0198007804
:102BF00040B2FDF759FF04B080BD000082B00190E3
:102C0000009101980099034A114008430249086065
:102C100002B0704780FFFF1F08ED00E080B584B070
:102C20000390029101A8028003987C49884205D153
:102C3000FFE7814800886946088036E003987849B4
:102C4000884205D1FFE77C484088694608802BE030
:102C500003987449884205D1FFE777488088694620
:102C6000088020E003987049884205D1FFE7724848
:102C7000C0886946088015E003986C49884205D1F0
:102C8000FFE76D480089694608800AE003986849B3
:102C9000884205D1FFE76848408969460880FFE718
:102CA000FFE7FFE7FFE7FFE7FFE7039802A90988CF
:102CB00001AA13886A4612885A43634B92FBF3F2C7
:102CC00000F0A8FF04B080BD10270000B0B590B0A0
:102CD000044614980F940EAC21800DA90A800CA90B
:102CE0000B800BA908800F984C49884207D1FFE759
:102CF000544800F00BFB0C984F49088042E00F98B5
:102D00004749884207D1FFE74D4800F0FFFA0C9889
:102D10004949488035E00F984249884208D1FFE789
:102D200040F2087000F0F2FA0C984349888027E0DE
:102D30000F983D49884208D1FFE740F2106000F04B
:102D4000E5FA0C983C49C88019E00F983749884249
:102D500007D1FFE7394800F0D9FA0C9836490881C5
:102D60000CE00F983249884207D1FFE7314800F064
:102D7000CDFA0C9830494881FFE7FFE7FFE7FFE70E
:102D8000FFE7FFE70F9800F0D1FF0D98401E07A95D
:102D9000088000200290488010228A800CAA0092AD
:102DA0001288521E0992C88008730F9801F062F8C9
:102DB000029804AA9080012103911180D080508054
:102DC000108150810F980EA90191098800F058FDDB
:102DD000009A01990F9809880BAB1B8812885A43F7
:102DE000194B92FBF3F200F015FF01990F98098837
:102DF000602200F0BFFE0199029A0F98098800F046
:102E000033FF03990F9801F0C6F80F9800F02EFDDC
:102E10000F9801F008F810B0B0BDC046002C01407A
:102E200000040040002000400040014000440140F8
:102E300000480140120600003A0000201106000080
:102E4000010700000B0600001027000080B582B0CB
:102E500000200C490191FFF797FB01990120FFF732
:102E6000BFFB02B080BDC04680B582B001200549DD
:102E70000191FFF789FB01990020FFF7B1FB02B038
:102E800080BDC046DC05000082B0014601A801708B
:102E90005D4A11684CF20003994311605B4A116866
:102EA0005B4B1940116000780090092800D9A7E019
:102EB00000998A0001A080188746C04600F012B829
:102EC00000F01CB800F026B800F02EB800F03BB8B7
:102ED00000F046B800F056B800F061B800F071B8E4
:102EE00000F07CB849490868012212049043086048
:102EF000086840F200129043086082E04349086885
:102F00000122120410430860086840F20012904346
:102F1000086076E0F64908680860F949086840F2F8
:102F20000012104308606CE0F14908680860F44939
:102F300008680122D20710430860086840F20012B6
:102F4000104308605DE0EA49086844F2000210435B
:102F50000860EB49086840F200121043086050E036
:102F6000E349086844F2000210430860E449086835
:102F70000122D20710430860086840F20012104393
:102F800008603EE0DA49086848F200021043086031
:102F9000DB49086840F200121043086031E0D44970
:102FA000086848F2000210430860D5490868012209
:102FB000D20710430860086840F20012104308600E
:102FC0001FE0CB4908684CF2000210430860CC496E
:102FD000086840F200121043086012E0C449086813
:102FE0004CF2000210430860C54908680122D2076C
:102FF00010430860086840F200121043086000E0C7
:10300000FFE702B07047C046041002403010024093
:10301000FFFEFE7F9DB01CA90870002002901B904F
:103020001A9019901890179016901590149013906C
:103030001290119010900F900E900D900C90AA4944
:103040000B91AA490A910990089007910690059161
:103050000490A74800680C21084080081B901B982A
:10306000039040B1FFE70398012807D0FFE70398DA
:10307000022806D044E0A148179044E09F481790EA
:1030800041E09B4801680F2292041140890C119184
:1030900000680121C9060840C00E10901098012850
:1030A00004D1FFE71198113011900BE011980F280F
:1030B00003D1FFE71020119003E01198801C1190BC
:1030C000FFE7FFE78A480068012109040840000C77
:1030D0000F900F9870B1FFE7874800680F210840F4
:1030E000401C0E900E998548B0FBF1F111984843B1
:1030F000179004E011997F4848431790FFE702E0DA
:103100007E481790FFE77A480168C9B209090D9116
:103110000D9A08A9895C0C9117990C9AD1401691C7
:10312000016840F200721140090A0D910D9A06A93A
:10313000895C0C9116990C9AD1401591006843F660
:1031400000010840C00A0D900D9904A8405C0C9045
:1031500016980C99C84014901CA800780190052876
:1031600000D9BCE001998A0001A080188746C046BA
:1031700000F00AB800F00BB800F00CB800F00DB881
:1031800000F00EB800F07DB817981890A8E01698D7
:103190001890A5E015981890A2E0149818909FE058
:1031A0005748006840F20011084088420FD0FFE7FE
:1031B00053480068012109040840884203D0FFE712
:1031C0005148139002E04F481390FFE756E04848FB
:1031D000006880B2800B1A9049480068C00F1990AF
:1031E0001A980090032847D800998A0001A08018F7
:1031F0008746C04600F006B800F012B800F01EB8CE
:1032000000F02CB8199820B9FFE7149840081390E3
:1032100005E016980321B0FBF1F01390FFE72CE0D6
:10322000199820B9FFE714988008139005E01698C4
:103230000521B0FBF1F01390FFE71EE0199830B9BB
:10324000FFE714980621B0FBF1F0139005E0169803
:103250000721B0FBF1F01390FFE70EE0199820B9B9
:10326000FFE71498C008139005E016980921B0FBF9
:10327000F1F01390FFE700E0FFE7FFE713981890E5
:103280002EE01F480068800718B9FFE714981290D5
:1032900022E01B48006803210840012803D1FFE712
:1032A0001798129017E0164800680321084002287A
:1032B00004D1FFE748F2000012900BE010480068CC
:1032C00003210840032803D1FFE70C48129000E0D7
:1032D000FFE7FFE7FFE7FFE71298189000E0FFE73E
:1032E00018981DB07047C04606070809010203047C
:1032F0000410024000093D002C10024000127A0028
:1033000030100240003FAB01809FD50081B00146E4
:103310006846018000881F220146114001238B402E
:103320008109154A88581843885001B07047C04633
:1033300081B001466846018000881F220146114085
:1033400001238B4081090C4A88589843885001B06A
:103350007047C04681B001466846018000881F2240
:103360000146114001238B408109034A88581843C4
:10337000885001B07047C0460010024080B5092057
:10338000C00648F20001FEF7EAFD20B9FFE7044954
:103390000120087003E0024900200870FFE780BDAB
:1033A0003800002080B50920C006032148F2000241
:1033B000FEF7ECFD80BD80B5FEF704FC002040F276
:1033C000E831FEF785F8032040F2F411FEF780F8AB
:1033D000FEF76EF880BD80B5FEF7F4FBFEF70EFC3D
:1033E000032140F21F120846FEF7A2FAFFF72EFD56
:1033F0006420FEF713FCFEF7E5FB80BD80B58EB0C0
:103400000D9019200C9014200B9017200A90FEF7B5
:10341000D9FB0020089040F2E831FEF759F8FEF79A
:10342000EDFB0C9801900D98FDF7E0F8394A0292F7
:10343000394B0393FCF7E8FFFDF71AF901460198B1
:10344000401A40F240114018FEF7E8FBFFF7FEFC7F
:1034500064200590FEF7E2FBFEF7B4FB32200690F5
:10346000FEF7DCFBFEF7CCF80B9840F2FE1140189B
:10347000FEF7D4FBFEF7A6FB0698FEF7CFFBFEF7A0
:10348000AFFB0C9804900D98FDF7B0F8029A039BDF
:10349000FCF7BAFFFDF7ECF80146049840180A99CA
:1034A000401840F2F4114018FEF7B8FBFFF7DCFCBF
:1034B0000598FEF7B3FBFEF785FB0698FEF7AEFB1B
:1034C000FEF79EF80B9807900D98FDF78FF8134ABA
:1034D000134BFCF799FFFDF7CBF801460798401A0C
:1034E00040F236114018FEF799FBFDF7E1FFFEF7B9
:1034F00069FB0A20FEF792FB089858490991FFF7EB
:1035000043F809990120FFF73FF89620FEF786FB64
:103510000EB080BD9A9999999999A93F7B14AE47AD
:10352000E17AA43F80B5FEF74DFBFEF759FB03217E
:1035300040F227120846FEF7B1F8FFF795FC3C2051
:10354000FEF76CFBFEF73EFB80BD000080B588B047
:103550000790079840F6A071884205DBFFE714202A
:103560000690372005901DE007983A49884205DB10
:10357000FFE7232006901920059012E0079840F2FB
:10358000D071884206DBFFE7282006900420C04364
:10359000059005E0322006900920C0430590FFE722
:1035A000FFE7FFE7FEF70EFB0020039040F2E83153
:1035B000FDF78EFFFEF714FB069840F2401140180D
:1035C000FEF72CFBFFF750FC64200190FEF726FB72
:1035D000FEF7F8FA32200290FEF720FBFEF710F813
:1035E000059840F2FE114018FEF718FBFEF7EAFAC4
:1035F0000298FEF713FBFEF701FB069816494018E8
:10360000FEF70CFBFFF722FC0198FEF707FBFEF725
:10361000D9FA0298FEF702FBFDF7F2FF059840F297
:1036200036114018FEF7FAFAFDF742FFFEF7CAFA24
:103630000A20FEF7F3FA039808490491FEF7A4FF65
:1036400004990120FEF7A0FF9620FEF7E7FA08B0E4
:1036500080BDC046B80B000001020000DC05000080
:1036600085B00A4604A9087003A802700278920780
:10367000130F0F229A40D2430292097802789207E0
:10368000120F91400191007880080090032835D8EE
:1036900000998A0001A080188746C04600F006B84D
:1036A00000F00EB800F016B800F01EB8029A1849E3
:1036B000086810400860019A0868104308601EE01E
:1036C000029A1249086810400860019A086810437D
:1036D000086014E0029A0C49086810400860019ADA
:1036E0000868104308600AE0029A0649086810401A
:1036F0000860019A08681043086000E0FFE705B021
:103700007047C04614000140100001400C00014009
:103710000800014084B000200390029031490868FD
:103720000122120410430860FFE70398401C039035
:103730002C4800680121490408400290FFE70299E3
:103740000020019039B9FFE703982749401A411E2C
:1037500088410190FFE70198C0070028E5D1FFE705
:10376000204800688003002802D4FFE7FFE7FEE757
:103770001E490868022210430522904308601C4934
:1037800000910868086008680860086808600868B0
:10379000184A1040086008681D221204104308608F
:1037A000104908680122120610430860FFE70D481F
:1037B00000688001002801D4FFE7F8E70C49086899
:1037C0000322904308600868022210430860FFE764
:1037D000074800680007002801D4FFE7F8E704B0B5
:1037E0007047C04600100240FFFF0000002002406A
:1037F00004100240FFFFC27780B5FFF78BFF80BD4A
:1038000081B000900098042806D1FFE706490868B7
:1038100004221043086005E003490868042290432D
:103820000860FFE701B0704710E000E080B50420B9
:10383000C043FFF7E5FF08480068FCF7D0FE0749E2
:10384000FCF7F2FC01460648016000680549FCF7F8
:10385000AEFC0549086080BD000000200024F44A49
:103860002800002000007A442400002081B000904D
:103870000099086880221043086001B0704700007A
:1038800084B0039002A80180019200880090032870
:1038900000D964E100998A0001A080188746C046DB
:1038A00000F006B800F063B800F0CBB800F023B920
:1038B0000399086A012290430862039988690322E8
:1038C00090438861019802880399086A104308624E
:1038D0000399086A0222904308620198828803993A
:1038E000086A1043086203989E4988420FD0FFE798
:1038F00003989D4988420AD0FFE703989B49884274
:1039000005D0FFE703989A4988422FD1FFE7039932
:10391000086A042290430862019842880399086A61
:10392000104308620399086A0822904308620198CC
:10393000C2880399086A104308620399486840F2F4
:103940000012904348600198028903994868104327
:1039500048600399486840F200229043486001980B
:1039600042890399486810434860FFE7F8E00399EB
:10397000086A1022904308620399886940F2003275
:10398000904388610198008802010399086A1043F6
:1039900008620399086A202290430862019880888F
:1039A00002010399086A1043086203986D4988422E
:1039B00033D1FFE70399086A4022904308620198D7
:1039C000408802010399086A104308620399086A53
:1039D0008022904308620198C08802010399086A16
:1039E000104308620399486840F2004290434860DF
:1039F0000198008982000399486810434860039940
:103A0000486840F60002904348600198408982006F
:103A10000399486810434860FFE70398F7498842D4
:103A20000ED1FFE70399486840F200429043486096
:103A30000198008982000399486810434860FFE7B5
:103A40008EE00399086A40F20012904308620399DD
:103A5000C86903229043C861019800880202039953
:103A6000086A104308620399086A40F200229043F2
:103A700008620198808802020399086A104308626C
:103A80000398DD49884235D1FFE70399086A40F27F
:103A90000042904308620198408802020399086A34
:103AA000104308620399086A40F6000290430862D6
:103AB0000198C08802020399086A104308620399BA
:103AC000486841F200029043486001980089020171
:103AD00003994868104348600399486842F200021D
:103AE0009043486001984089020103994868104357
:103AF0004860FFE734E00399086A41F2000290430E
:103B000008620399C86940F200329043C861019885
:103B1000008802030399086A104308620399086A3F
:103B200042F20002904308620198808802030399E0
:103B3000086A104308620398AF4988420ED1FFE734
:103B40000399486844F20002904348600198008954
:103B500082010399486810434860FFE700E0FFE7EF
:103B600004B07047002C0140004001400044014077
:103B70000048014084B0039002A8018001A90A8096
:103B800000880090032841D800998A0001A080187D
:103B90008746C04600F006B800F010B800F01CB828
:103BA00000F026B80399886970229043886101A8C3
:103BB0000288039988691043886128E0039988691D
:103BC00047F200029043886101A80088020203992D
:103BD0008869104388611AE00399C869702290438C
:103BE000C86101A802880399C8691043C8610EE042
:103BF0000399C86947F200029043C86101A8008890
:103C000002020399C8691043C86100E0FFE704B0ED
:103C10007047000084B0039002A8018001920088E0
:103C2000009003281CD800998A0001A080188746BC
:103C300000F006B800F008B800F00AB800F00CB8C0
:103C40000198039948630CE001980399886308E0A0
:103C500001980399C86304E001980399086400E09F
:103C6000FFE704B07047000084B0039002A8018011
:103C700001A90A8000880090032841D800998A0091
:103C800001A080188746C04600F006B800F010B8C2
:103C900000F01CB800F026B8039988690822904308
:103CA000886101A80288039988691043886128E027
:103CB0000399886940F600029043886101A8008852
:103CC000020203998869104388611AE00399C86960
:103CD00008229043C86101A802880399C86910436B
:103CE000C8610EE00399C86940F600029043C861BC
:103CF00001A8008802020399C8691043C86100E066
:103D0000FFE704B0704782B0019000200090019856
:103D1000406A0090009802B0704782B001906846F7
:103D2000018000880199486202B0704780B58AB06E
:103D30000990099808908949884226D0FFE7089899
:103D40002C49884229D0FFE70898854988422CD021
:103D5000FFE70898804988420FD0FFE7089881491B
:103D600088422BD0FFE708987F4988422FD0FFE791
:103D700008987E49884232D039E025480790FFF7FD
:103D8000E9FA0798FFF7D4FA32E020480690FFF7E7
:103D9000E1FA0698FFF7CCFA2AE01B480590FFF7F6
:103DA000D9FA0598FFF7C4FA22E040F208400490DF
:103DB000FFF7D0FA0498FFF7BBFA19E040F2103091
:103DC0000390FFF7C7FA0398FFF7B2FA10E00D4827
:103DD0000290FFF7BFFA0298FFF7AAFA08E0084836
:103DE0000190FFF7B7FA0198FFF7A2FA00E0FFE7AA
:103DF0000AB080BD00100040002C0140004001408E
:103E0000120300001103000004040000010400007C
:103E10000B03000081B000900099086801229043D4
:103E2000086001B0704781B00090009908680122D5
:103E30001043086001B0704782B001900091009873
:103E4000C0430199086102B0704783B001900091AE
:103E5000019800690099084204D0FFE702A90120F7
:103E6000087003E002A900200870FFE702A80078AC
:103E700003B0704782B001900091009800880199CA
:103E8000886201983449884205D0FFE70198334998
:103E9000884212D1FFE701990868702290430860B8
:103EA0000098428801990868104308600098828849
:103EB0000199086810430860FFE70098806801993D
:103EC000C86201982449884219D0FFE70198234924
:103ED000884214D0FFE70198214988420FD0FFE7BC
:103EE0000198204988420AD0FFE701981E4988427C
:103EF00005D0FFE701981D4988420DD1FFE70199E0
:103F0000086840F20032904308600098C288019926
:103F1000086810430860FFE701980F4988420FD0F6
:103F2000FFE701980F4988420AD0FFE701980E4940
:103F3000884205D0FFE701980C49884205D1FFE788
:103F40000098007B01990863FFE701994869012205
:103F50001043486102B07047002C0140000400404B
:103F60000020004000400140004401400048014062
:103F700082B001900091009A0199C8681043C8600E
:103F800002B0704782B0019000910098C04301993F
:103F9000086102B0704782B00190684601700078F5
:103FA000012807D1FFE70199486C48F2000210434D
:103FB000486406E00199486C48F200029043486466
:103FC000FFE702B07047000080B582B0E74800907C
:103FD000042101914022FDF7D9FF00980199802228
:103FE000FDF7D4FF02B080BD80B584B00390039884
:103FF000E1214902019100900920C20640F200210E
:1040000040F20043104600F003F804B080BD000009
:1040100010B584B0079C069C039002910192009316
:1040200003980921C906884204D1FFE76A48FFF7CF
:104030006DF91DE00398CD49884204D1FFE765483A
:10404000FFF764F913E003985E49884204D1FFE763
:104050005F48FFF75BF909E003985B49884204D1A8
:10406000FFE75A48FFF752F9FFE7FFE7FFE7FFE7EF
:104070000398BE4988420AD1FFE70298402806D13A
:10408000FFE70398029A0021FDF7E4FEFFE703989B
:104090000921C90688420CD1FFE7029840F20021AD
:1040A000884206D1FFE70398029A0121FDF7D2FE6C
:1040B000FFE70398029B02210122FEF7A1F9039872
:1040C000029B00210322FEF7E2F901980921C906AB
:1040D000884204D1FFE74048FFF718F91DE0019836
:1040E000A249884204D1FFE73A48FFF70FF913E0ED
:1040F00001983449884204D1FFE73548FFF706F9B3
:1041000009E001983049884204D1FFE72F48FFF7C2
:10411000FDF8FFE7FFE7FFE7FFE7019893498842D3
:104120000AD1FFE70098802806D1FFE70198009A9E
:104130000021FDF78FFEFFE701980921C90688429B
:104140000CD1FFE7009840F20041884206D1FFE71A
:104150000198009A0121FDF77DFEFFE70198009B81
:1041600002210122FEF74CF90198009B0021032255
:10417000FEF78DF90698C249884204D1FFE7184836
:10418000FFF7C4F809E00698BC49884204D1FFE76C
:104190001248FFF7BBF8FFE7FFE7069800F04CF97D
:1041A0000698079900F0F0F80698042100F077F9D6
:1041B0000698082100F082F9069800F067F904B02B
:1041C00010BDC04600080048001400481605000055
:1041D0001305000012050000110500001107000082
:1041E0000E06000080B588B0FFE70920C006402118
:1041F000FDF7B5FE012801D1FFE7F6E7BF480590BE
:10420000012206921146FDF785FE1420FDF740FDC0
:10421000059806990022FDF77DFEFFE759480078D2
:10422000B0B3FFE757490020049008705348006876
:10423000FCF7D5F9019052480068FCF7D0F918490D
:104240000291FBF7F1FF01460198FBF757FF029936
:10425000FBF7ADFF1349FBF7AAFF1349FBF7E4FF98
:10426000FCF748FA114A124BFCF7CEF8049A114BAE
:104270000393FCF7C9F8039B049AFCF7C5F8049A6A
:1042800001239B07FCF728F9FCF716FA0790C5E70E
:104290003A49002008603A490860079808B080BD94
:1042A00000409C45000090424054894CB81E85EB6C
:1042B00051E874400000594080B58AB040F2006077
:1042C000FFF724F88D480090042101220492FDF7A5
:1042D0005DFE0098049900220592FDF71BFE09205F
:1042E000C0060221019140220292FDF74FFE05997E
:1042F0000720FEF76DFC04991120FEF769FC059874
:104300000621FFF7ADF9019A02980599FDF700FD26
:104310000298FDF775FD0298FDF768FD1448FEF759
:10432000F5FF14480390FFF701FD0398059A06A9CD
:1043300047230B804A808A800F4B0893CA800A73F8
:10434000FFF798FD0398FFF791FA03980499FFF798
:1043500019FE03980499FFF70BFE059807490860BA
:1043600007490860074908700AB080BD000400488A
:1043700004070000001000408713000034000020F4
:104380002C0000203000002080B588B007900691F6
:1043900000200590049003900290079801903749FF
:1043A00088420AD0FFE70198354988420AD1FFE7E1
:1043B0000520FEF72FFE059005E00220FEF72AFEFD
:1043C000059000E0FFE7079800680004002818D572
:1043D000FFE70598400006994A088018B0FBF1F005
:1043E0000290029813490840049002980007400F79
:1043F000039004A8008803A9098808430799C860A6
:1044000016E0059806994A088018B0FBF1F0029072
:10441000029808490840049002980F210840039030
:1044200004A8008803A9098808430799C860FFE722
:1044300008B080BDF0FF000080B584B00390039801
:1044400002900E4988420DD0FFE702980C4988423D
:1044500010D1FFE70C480190FEF77CFF0198FEF7B2
:1044600067FF08E007480090FEF774FF0098FEF72A
:104470005FFF00E0FFE704B080BDC046004400409D
:1044800000380140110400000E03000081B00090CC
:104490000099086801221043086001B0704782B09B
:1044A0000190009101990868042290430860009AE5
:1044B000019908681043086002B0704782B001900B
:1044C000009101990868082290430860009A0199B8
:1044D00008681043086002B07047000080B582B0E1
:1044E000064808211022FDF751FD002100912C48BB
:1044F00009221423FEF7EAFB02B080BD0004004845
:1045000080B586B005900598407804A90870059894
:104510000078487005988078887000200390FFE745
:104520000398022839D8FFE708200290FFE7029895
:1045300070B3FFE7039904A8405C0299491EC84084
:10454000C00730B1FFE716480021164AFEF766FBA8
:1045500006E01348002140F2E832FEF75FFBFFE778
:104560000F48FFF760FCFFE70D480121FFF76DFCE6
:1045700008B9FFE7F8E70A480190FFF74BFC0198FC
:104580000121FFF759FCFFE70298401E0290CEE799
:10459000FFE70398401C0390C2E706B080BDC04609
:1045A00000040040B80B00002021020C01D01021B3
:1045B0001046020A01D010460839020901D01046FF
:1045C000091F820801D01046891E420801D0881EAA
:1045D0007047081A704702E008C8121F08C1002A75
:1045E000FAD170477047002001E001C1121F002A74
:1045F000FBD1704718460008000000202000000092
:10460000D64500083846000820000020300400008D
:10461000E64500080000000000A24A040000FF0078
:10462000FFFF00FF00FF00FFFF0000A7C8E2FFFF41
:08463000FFFFFF000000000085
:04000005080000CD22
:00000001FF
