:020000040800F2
:1000000050040020E1000008D9080008D1080008C9
:1000100000000000000000000000000000000000E0
:10002000000000000000000000000000E1080008DF
:100030000000000000000000DB080008F1000008DC
:10004000F3000008F3000008F3000008F3000008C4
:10005000F3000008350800083708000839080008D0
:1000600000000000F3000008F3000008F30000089F
:10007000F3000008F30000089109000800000000E8
:100080009B0900089D090008000000009309000872
:10009000950900089709000899090008D508000883
:1000A000D7080008DD080008DF080008B9090008C3
:1000B000BB09000800000000000000000000000074
:1000C000F300000800000000F30000080348854624
:1000D00000F09EFB004800472D1E00085004002041
:1000E0000448804704480047FEE7FEE7FEE7FEE7D6
:1000F000FEE7FEE7E5080008CD000008024670B5FF
:100100004A40D30FDB0740002DD04A002AD0010E11
:10011000140E000212020919400A520A8418E5015D
:1001200004465443000A120A2E045043A4194219EB
:10013000200CC543AA18120C0125AD03521C5219FC
:1001400012047F39240400D0521C104301D4400013
:10015000491EC2B20C06C0092018401C4008802A63
:1001600002D003E0002070BD40084000002900DA02
:100170000020184370BD70B502464A40D50F4000BC
:100180004A00ED0740085208002814D0002A12D077
:10019000C40DD30D41020120C0055202490A520A82
:1001A000E41A091812187D34914201D3641C00E04E
:1001B0004900002C01DA002070BD0023914201D3D8
:1001C000891A0343400849000028F7D100290AD0C2
:1001D000914202D10121C90705E0914201D20121DA
:1001E00001E00121C943E005C018401900F070FA90
:1001F00070BD0000F0B507460846584087B0C00FF4
:10020000049048000E46590040084908BC1A88412D
:1002100005D2384631461E4617460B460246580060
:10022000400810434CD0300D039040055900400D5C
:10023000490D0590401A0290402872DA18030121F6
:10024000000B09050843019004980092002805D08E
:100250000199524200208841009201900298402169
:100260000A1A0199009800F0FFF905460C466B4602
:1002700007CB00F01AFAC0197141039A0E0D002342
:10028000D71756401A467A40164344D0049A002A9B
:100290002DD0029A012A039A15DC1205C01A914149
:1002A00001263605001C7141D20F059ED20700932E
:1002B000019202962A46234600F058FA07B0F0BD94
:1002C00038463146FAE71605224A0F46B218C01AD8
:1002D000B74101210905001C4F4100187F4111461B
:1002E00018187941E20F10436D19644113E0E207D9
:1002F0006D0815436408C2071443039A01261205CA
:10030000C01A91413605001C7141CE0740083043A8
:100310004908C01851412A46234600F01AFACDE791
:10032000FFE7049801224000C117121A00238B41F5
:1003300004983146C417381AA141EEE730B40124BD
:10034000E407634030BC55E730B40124E407614062
:1003500030BC4FE70000E0FFF0B51FB488B00B9948
:100360000998002448400999C00F4900490809919B
:10037000C0070B990090490049080B91099908980A
:10038000A64608431CD00B990A98084318D0099830
:1003900001244000420D4800410D09982405000346
:1003A000000B204309900B980003000B20430B9097
:1003B00050181C494018002201901446104605E0D0
:1003C000002001460DB0F0BD032801DA034600E02D
:1003D00003239C46C11A0AAE0AE05F0008ADED5B3C
:1003E0004F00F75B7D430027AA187C41491C5B1E28
:1003F0006145F2DD410004AB5A522104120C0A435C
:10040000240C401C0828DFDB0198029000997046FC
:1004100001910090059B049A0799069800F0A6F9AF
:10042000D0E700000DFCFFFFF0B50C465C4085B046
:10043000E40FE40703944C00002664085900944636
:10044000490802460296224321D062460A431ED042
:100450006200570D4A000E032303550D0124024686
:100460002C492405781B1B0B360B401823432643CD
:10047000614600901C46501AB44103D30098401CBA
:10048000009002E0921800985B41002803DA0020F7
:10049000014605B0F0BD002001210905074686464A
:1004A00011E064461D46141BB54106D36546521B38
:1004B000B341744607430C43A646CD07400849089C
:1004C000284392185B4105460D43EAD11046184374
:1004D00013D06046194650407140084306D060462C
:1004E000101AB34106D20122002306E000220123A4
:1004F000DB0702E00122D243531000987446010545
:10050000381C6141029C039D0019694100F021F9EA
:10051000BFE70000FD030000C217C10F504010B537
:100520004018CA079623002100F0DAF810BD10B574
:1005300000229623114600F0D3F810BD0EB5C21765
:10054000C10F5040CA0740180021054B0293019289
:1005500000910A460B4600F009F903B000BD000007
:1005600033040000C20F410040020123400ADB05B2
:10057000D207090EC0187F2901DA0020704796299A
:1005800003DC9623591AC84001E096398840002AB6
:10059000F4D040427047410040020122400AD20597
:1005A000090E80187F2901DA00207047962903DCA4
:1005B0009622511AC840704796398840704700000B
:1005C00070B5CD0F4A0009030123090B1B05194320
:1005D0000B4BED070024520D9A4201DA002070BD4A
:1005E000074B34339A4203DC9A1A00F04DF802E0CC
:1005F0000449511888402C43F1D0404270BD00009E
:10060000FF030000CDFBFFFFC20FD20740004008F0
:100610000BD0C10D0723DB01C91840020905400AB0
:100620001143C2084007114370470020014670473C
:10063000CB0FDB07490010B5490802460A4307D033
:100640000A0D07240903E401090B121B002A01DC2F
:10065000002010BDC900440F0C43C100E018D205B2
:10066000801800F035F810BD10B5202A04DB0146D3
:10067000203A9140002010BD914020239C1A03464F
:10068000E3401943904010BD10B5202A04DB084612
:10069000203AD040002110BD0B46D340D04020244A
:1006A000A21A91400843194610BD10B5202A06DB56
:1006B000CB170846203A1041C1170B4306E00B4602
:1006C0001341D0402024A21A91400843194610BD7E
:1006D000002904DA401C490001D14008400070475D
:1006E00070B40024050C05D11024000402D10029A7
:1006F00021D01124050E01D100020834050F01D1CB
:100700000001241D850F01D18000A41C002801DBFD
:100710004000641C002908D020252E1B0D46F54002
:10072000A14000D001212943084301061B1B000AF8
:10073000DB1D02D5002070BC7047DB05181880183F
:100740000029F8DA401C4900F5D170BC400840008F
:10075000704710B5002B08DA0024401C6141921844
:100760005B411A4301D14008400010BDF0B51FB4F1
:1007700082B005460C0003D0084602F09FFF02E05D
:1007800002F09CFF20300246009021462846FFF7E9
:100790006BFF049B059A04460F4618431143084318
:1007A00014D0184610431BD0009840210A1A18464E
:1007B0000599FFF769FF05460E46009A05990498CA
:1007C000FFF752FF084305D0012004E020463946D8
:1007D00007B0F0BD0020C11705430E432C4337433B
:1007E00000990E986305401A7905E40A00220C432B
:1007F000FD0A0A3002D500200146E9E7010510197B
:1008000069410C9C0D9D00196941FFF7A2FFDFE7CC
:10081000064C0125064E05E0E36807CC2B430C3C53
:1008200098471034B442F7D3FFF754FC0837000858
:10083000283700087047704780B584B0402000F02A
:10084000DFFE60B3FFE71E480121002200F05AFFDF
:100850001C48007890B9FFE75548029000210391A9
:1008600002F04FFB029802F0D2FB0398154A0121D7
:10087000117050490860144908600FE04C4801901D
:1008800002F0BCFB01980F4A0021117002F02FFB0F
:100890000D4908600D4901200870FFE7FFE740207F
:1008A00000F0A6FE48F2000000F0AAFE28B1FFE723
:1008B00048F2000000F09CFEFFE704B080BDC04697
:1008C00000040048200000202C0000203000002000
:1008D000FFE7FEE770477047704770477047704703
:1008E0007047000080B582B020490868012210439B
:1008F0000860FFE71D4800688007002801D4FFE773
:10090000F8E71B4908681B4A1040086008681A4A43
:100910001040086015490868184A104008601849D6
:1009200008680F22904308601649086840F20312D5
:1009300090430860086801220092130498430860FD
:100940000868D307984308600F4908689043086017
:100950000E4900200190086002F042F800980199C9
:10096000C00601F0C5FB02B080BDC04600100240C9
:10097000041002400C00FF08FFFFC277FFFFF2FEE9
:100980002C10024030100240341002400810024087
:1009900070477047704770477047704780B504488C
:1009A000012102F0E3FB03490868401C086080BD98
:1009B00000100040340000207047704781B00146AD
:1009C00068460170007840B200280DD4FFE7684601
:1009D000007841B21F200A46024001209040490998
:1009E0008900024A8850FFE701B0704700E100E04B
:1009F00070B582B0024601A802700091007840B242
:100A0000002817D4FFE701A9087840B20322D34396
:100A10001840184A8058097849B28C07E50EFF241F
:100A2000AC40A043009CA401E4B2AC402043194078
:100A300088501AE001A908780F24204008380322C2
:100A4000D34318400A4A8058097849B28D07EE0E00
:100A5000FF25B540A843009DAD01EDB2B540284348
:100A60002140083919408850FFE702B070BDC046E8
:100A70001CED00E000E400E082B000900098002847
:100A800003D4FFE70098019003E0009840420190F2
:100A9000FFE7019802B070476949086808221043CF
:100AA0000860FFE7664800680007002801D5FFE7F7
:100AB000F8E763490868042210430860FFE76048CC
:100AC00000684007002801D5FFE7F8E77047C046F7
:100AD00080B582B00190019800F0D4F802B080BDDA
:100AE00080B582B0019001A801780022104600F084
:100AF000E7F9012000F098FA022000F0A3F8FFE7E0
:100B0000022000F0A9F808B9FFE7F9E700F086FA3B
:100B100002B080BD81B00090009838B1FFE748492D
:100B2000086840F600021043086006E0444908687F
:100B300040F6000290430860FFE701B07047C046EE
:100B400080B582B00448019001F062FE019801F086
:100B50004DFE02B080BDC046090300003848006861
:100B6000C00730B9FFE73649086801221043086022
:100B7000FFE7704782B001AA1070684601700078E4
:100B8000D0B1FFE701A80078C00738B1FFE72C49D2
:100B900008680122120510430860FFE701A80078E9
:100BA0008007002807D5FFE72549086848F20002BA
:100BB00010430860FFE719E001A80078C00738B1CA
:100BC000FFE71F4908680122120590430860FFE70C
:100BD00001A800788007002807D5FFE718490868B2
:100BE00048F2000290430860FFE7FFE702B0704759
:100BF00083B0024602A8027001910078009001289B
:100C000004D0FFE7009802280BD015E00C490868D3
:100C10000722520490430860019A08681043086054
:100C20000BE00749086847F2000290430860019A08
:100C300008681043086000E0FFE703B07047C04653
:100C40000824014081B00090009A0D490868904343
:100C5000086001B07047C04682B00190694600202C
:100C60000870074800680199084204D0FFE7694608
:100C700001200870FFE76846007802B07047C04660
:100C80000024014080B584B0039001F0C3FE0398B6
:100C9000082804D0FFE70398092804D1FFE7564845
:100CA00001F092FD03E0534801F08EFDFFE7039849
:100CB00040B9FFE70920C00603210022012300F00C
:100CC0006CFF72E00398012808D1FFE70920C006F5
:100CD00003210022022300F060FF65E00398022850
:100CE00008D1FFE70920C00603210022042300F0F9
:100CF00054FF58E00398032808D1FFE70920C006F5
:100D000003210022082300F048FF4BE00398042849
:100D100008D1FFE70920C00603210022102300F0BC
:100D20003CFF3EE00398052808D1FFE70920C006F4
:100D300003210022202300F030FF31E00398062831
:100D400008D1FFE70920C00603210022402300F05C
:100D500024FF24E00398072808D1FFE70920C006F4
:100D600003210022802300F018FF17E003980828D1
:100D700007D1FFE7214803210022012300F00DFFE6
:100D80000BE00398092807D1FFE71C480321002244
:100D9000022300F002FFFFE7FFE7FFE7FFE7FFE7BF
:100DA000FFE7FFE7FFE7FFE7FFE7154801F00CFD6E
:100DB000062001F0C7FAFFF7C3FE022000210191CF
:100DC00000F050F9019940F2001000F04BF9019841
:100DD000FFF7A0FE0720410401200290FFF708FF63
:100DE00002990846FFF7C6FEFFF7B8FEFFF754FE6C
:100DF00004B080BD11050000120500000004004889
:100E00000906000080B588B0069005A8017003AA05
:100E1000002111800078002804DCFFE707A90020EA
:100E2000088048E00698FFF75BFE03A90880039856
:100E300002A90880039801A9088004A9012008706C
:100E4000FFE704A80078042827DCFFE70698FFF7EF
:100E500047FE014668460180009A0399891803AA53
:100E60001180008802A90988884204DDFFE7009804
:100E700002A908800BE06846008801A90988884219
:100E800004DAFFE7009801A90880FFE7FFE7FFE722
:100E90000498401C04A90870D3E7019802994118EE
:100EA0000398411A03A8018000880321B0FBF1F0E8
:100EB00007A90880FFE707A8008808B080BD0000E8
:100EC00010B585B0034604A8037003AB19700292F5
:100ED0000078052818D8FFE74D490868019004AB51
:100EE0001C780520024662431F249440019AA243C5
:100EF000019203AA12781B7858438240019810434C
:100F000001900198086040E004A800780B281AD8E6
:100F1000FFE73E490868019004AB1C7805200246B3
:100F200062431E3A1F249440019AA243019203AAED
:100F300012781B7858431E38824001981043019064
:100F40000198086020E004A800780F281AD8FFE76D
:100F50002D490868019004AB1C78052002466243C5
:100F60003C3A1F249440019AA243019203AA1278AA
:100F70001B7858433C3882400198104301900198F7
:100F8000086000E0FFE7FFE7FFE703A80078092813
:100F900017D8FFE720490868009003AB1C780320AE
:100FA0000246624307249440009AA2430092029AA8
:100FB0001B785843824000981043009000980860C6
:100FC0001FE003A80078122819D8FFE71149086824
:100FD000009003AB1C780320024662431E3A0724AC
:100FE0009440009AA2430092029A1B7858431E38FC
:100FF00082400098104300900098086000E0FFE7EE
:10100000FFE705B010BDC0462C240140302401404C
:10101000342401400C2401401024014001480068A0
:1010200080B270474C24014081B00146684601708F
:101030000078C00738B1FFE73649086801229205F9
:1010400010430860FFE7684600788007002807D54E
:10105000FFE7304908680122520510430860FFE7A6
:1010600001B0704782B0019068460170007830B3DB
:10107000FFE701A84078C00738B1FFE724490868B6
:1010800040F2001210430860FFE701A840784007D3
:10109000002807D5FFE71E49086840F200421043C8
:1010A0000860FFE701A800788007002806D5FFE761
:1010B00018490868022210430860FFE725E001A8EC
:1010C0004078C00738B1FFE71149086840F20012C4
:1010D00090430860FFE701A840784007002807D543
:1010E000FFE70B49086840F2004290430860FFE7C1
:1010F00001A800788007002806D5FFE705490868A1
:10110000022290430860FFE7FFE702B07047C04645
:10111000042401400824014080B582B00920C006A3
:101120000A2140F2001200F013FB00210091034855
:101130000E22034B01F046F802B080BD002C0140A6
:10114000204E000080B594B0034613A8037012919E
:101150001192007810BBFFE700201090FFE7109875
:101160001299884219D2FFE79D480E9002F052FA78
:101170000E9802F04FFA119800F082F9A0480F90F3
:1011800002F048FA0F9802F045FA119800F078F949
:10119000FFE71098401C1090E1E711E113A80078D8
:1011A000012822D1FFE700201090FFE71098129944
:1011B000884219D2FFE789480C9002F02BFA0C986C
:1011C00002F028FA119800F05BF98D480D9002F0BA
:1011D00021FA0D9802F01EFA119800F051F9FFE77C
:1011E0001098401C1090E1E7E9E013A8007802286D
:1011F00022D1FFE700201090FFE710981299884253
:1012000019D2FFE774480A9002F004FA0A9802F033
:1012100001FA119800F034F979480B9002F0FAF9CC
:101220000B9802F0F7F9119800F02AF9FFE71098EF
:10123000401C1090E1E7C1E013A80078032822D1F8
:10124000FFE700201090FFE710981299884219D20A
:10125000FFE76048089002F0DDF9089802F0DAF93B
:10126000119800F00DF96648099002F0D3F9099839
:1012700002F0D0F9119800F003F9FFE71098401C34
:101280001090E1E799E013A80078042822D1FFE745
:1012900000201090FFE710981299884219D2FFE7BA
:1012A0004B48069002F0B6F9069802F0B3F911988F
:1012B00000F0E6F85248079002F0ACF9079802F007
:1012C000A9F9119800F0DCF8FFE71098401C109085
:1012D000E1E771E013A80078052822D1FFE700209C
:1012E0001090FFE710981299884219D2FFE737480B
:1012F000049002F08FF9049802F08CF9119800F034
:10130000BFF83F48059002F085F9059802F082F990
:10131000119800F0B5F8FFE71098401C1090E1E735
:1013200049E013A80078062822D1FFE7002010909A
:10133000FFE710981299884219D2FFE722480290DD
:1013400002F068F9029802F065F9119800F098F837
:101350002B48039002F05EF9039802F05BF91198B4
:1013600000F08EF8FFE71098401C1090E1E721E0B4
:1013700000201090FFE710981299884219D2FFE7D9
:101380001048009002F046F9009802F043F91198D5
:1013900000F076F81A48019002F03CF9019802F04A
:1013A00039F9119800F06CF8FFE71098401C109084
:1013B000E1E7FFE7FFE7FFE7FFE7FFE7FFE7FFE71B
:1013C00014B080BD130000200D0000200700002095
:1013D000040000200A000020160000201900002050
:1013E0001000002080B582B00548019002F012F98B
:1013F000019802F00FF9322000F042F802B080BDEF
:101400004600002080B584B001F004FB1B4801F0C9
:10141000DFFE01200390FFF75BFB0520029000F048
:101420002FF804200190FFF753FB029800F028F8F2
:101430000298FFF74DFB022000F03CFC032000F077
:1014400039FC019800F036FC029800F033FCFFF7FD
:1014500063FE01F0EFF9002000F08EFC039800F02D
:101460008BFC02F0C5F8FFF7BDFF01F0A1FE01F013
:10147000ADFF00F01EFC04B080BDC0460038014046
:1014800080B584B003900398FFF751F818490968B4
:10149000FEF734FEFFF77FF8164908601649002072
:1014A0000860164901200860FFE7144800680290B0
:1014B000FFE7002002A90978C907019041B1FFE7C1
:1014C00002A8807801210840414248410190FFE78D
:1014D0000198C0070028E8D1FFE708490868012201
:1014E0009043086004490020086004B080BDC046F5
:1014F0002400002014E000E018E000E010E000E02C
:1015000085B0049003A8017002A90A70049B4C4A9C
:10151000116899431160049B2D4A11689943116029
:10152000049B2C4A116899431160049B2A4A116854
:10153000994311600078019020B1FFE701980128DC
:1015400006D00BE0049A3E4908681043086006E0A4
:10155000049A1F4908681043086000E0FFE702A8EA
:101560000078009003282FD800998A0001A08018E5
:101570008746C04600F006B800F00FB800F018B873
:1015800000F021B8049A1349086810430860049ACF
:10159000114908689043086017E0049A0D490868EB
:1015A00090430860049A0C490868104308600CE0F6
:1015B000049A0849086810430860049A06490868B4
:1015C0001043086001E0FFE7FFE705B07047C04641
:1015D00004040140080401400C04014081B0009063
:1015E000009A174908681043086001B07047C04668
:1015F00081B0009000981149086001B07047C04662
:1016000084B002900D4800680299084001900C488F
:101610000068029908400090019838B1FFE70098EF
:1016200020B1FFE703A90120087003E003A900200F
:101630000870FFE703A8007804B070471404014065
:101640000004014086B00590049103920598006A59
:1016500001900598406A009002A900200880FFE7E9
:1016600002A8008807281DD8FFE702A80188039870
:10167000C840C00780B1FFE702A8018889000F2297
:101680008A4001999143019104990088800081402A
:10169000019808430190FFE7FFE70298401C02A968
:1016A0000880DDE702A908200880FFE702A800887B
:1016B0000F281FD8FFE702A801880398C840C00779
:1016C00090B1FFE702A80188890020390F228A40E3
:1016D000009991430091049900888000203881404E
:1016E000009808430090FFE7FFE70298401C02A91A
:1016F0000880DBE70198059908620098059948621F
:1017000006B0704780B584B00390029101A80270C2
:10171000007828B1FFE70398029900F010F804E080
:101720000398029900F003F8FFE704B080BD82B08F
:101730000190009100980199886202B0704782B0D0
:101740000190009100980199886102B070470000F3
:1017500080B592B0119010A801700F9211980921D4
:10176000C906884204D1FFE7F04801F02DF81DE0DA
:101770001198EF49884204D1FFE7EE4801F024F8C0
:1017800013E01198EC49884204D1FFE7EB4801F0DF
:101790001BF809E01198EA49884204D1FFE7E948BB
:1017A00001F012F8FFE7FFE7FFE7FFE710A8007876
:1017B00038B9FFE711980F9B0321002200F0EDF9E3
:1017C000E9E110A80078012807D1FFE711980F9BE5
:1017D0000022114600F0E1F9DCE110A800780228AF
:1017E00007D1FFE711980F9B0021022200F0D5F9E5
:1017F000CFE110A80078032807D1FFE711980F9BCD
:101800000021012200F0C9F9C2E110A800780428E3
:101810000ED1FFE711980F9B012100220E9200F0DC
:10182000BCF90E9911980F9B032200F0FDF9AEE16F
:1018300010A8007805280DD1FFE711980F9B002212
:10184000114600F0AAF911980F9B0121032200F024
:10185000EBF99BE110A80078062813D1FFE7119857
:101860000F9B022100220D9200F097F90D9911981B
:101870000F9B032200F0D8F90D9911980F9AFFF7EA
:10188000E1FE82E110A80078072813D1FFE7119844
:101890000F9B022100220C9200F07FF911980F9B00
:1018A0000121032200F0C0F90C9911980F9AFFF75B
:1018B000C9FE69E110A80078082813D1FFE7119844
:1018C0000F9B022100220B9200F067F90B991198EF
:1018D0000F9B032200F0A8F911980F9A0121FFF73E
:1018E000B1FE50E110A80078092813D1FFE7119844
:1018F0000F9B0221002200F050F911980F9B01214B
:101900000A91032200F090F90A9911980F9AFFF7B3
:1019100099FE37E110A800780A2814D1FFE7119842
:101920000F9B022109910022089200F036F90899D4
:1019300011980F9B032200F077F9099911980F9ADB
:10194000FFF780FE1DE110A800780B2813D1FFE7F8
:1019500011980F9B02210791002200F01EF91198A7
:101960000F9B0121032200F05FF9079911980F9A4C
:10197000FFF768FE04E110A800780C2814D1FFE7F7
:1019800011980F9B02210022059200F006F905999B
:1019900011980F9B0322069200F046F906991198C0
:1019A0000F9AFFF74FFEEAE010A800780D2813D138
:1019B000FFE711980F9B0221002200F0EEF811982A
:1019C0000F9B01210322049200F02EF90499119833
:1019D0000F9AFFF737FED1E010A800780E2813D138
:1019E000FFE711980F9B02210022039200F0D5F827
:1019F000039911980F9B032200F016F911980F9A82
:101A00000421FFF71FFEB8E010A800780F2812D1BC
:101A1000FFE711980F9B0221002200F0BEF81198F9
:101A20000F9B0121032200F0FFF811980F9A042167
:101A3000FFF708FEA0E010A80078102813D1FFE7F8
:101A400011980F9B02210022029200F0A6F8029941
:101A500011980F9B032200F0E7F811980F9A0521C7
:101A6000FFF7F0FD87E010A80078112812D1FFE7FA
:101A700011980F9B0221002200F08FF811980F9B04
:101A80000121032200F0D0F811980F9A0521FFF7E9
:101A9000D9FD6FE010A80078122813D1FFE7119844
:101AA0000F9B02210022019200F077F80199119812
:101AB0000F9B032200F0B8F811980F9A0621FFF748
:101AC000C1FD56E010A80078132812D1FFE7119845
:101AD0000F9B0221002200F060F811980F9B01215A
:101AE000032200F0A1F811980F9A0621FFF7AAFD32
:101AF0003EE010A80078142813D1FFE711980F9B3F
:101B000002210022009200F048F8009911980F9BE2
:101B1000032200F089F811980F9A0721FFF792FD30
:101B200025E010A80078152820D10DE0110500004F
:101B300000040048120500000008004813050000DA
:101B4000001400481605000011980F9B0221002286
:101B500000F023F811980F9B0121032200F064F894
:101B600011980F9A0721FFF76DFDFFE7FFE7FFE7E9
:101B7000FFE7FFE7FFE7FFE7FFE7FFE7FFE7FFE735
:101B8000FFE7FFE7FFE7FFE7FFE7FFE7FFE7FFE725
:101B9000FFE7FFE7FFE712B080BD87B00690059131
:101BA000049203930698006801900698C06800901C
:101BB00002A900200880FFE702A800880F282BD880
:101BC000FFE702A801880398C840C007F0B1FFE70B
:101BD00002A801884900032213468B4001999943CA
:101BE0000191059B018849008B400199194301919E
:101BF000018849008A400099914300910499008826
:101C000040008140009808430090FFE7FFE70298FA
:101C1000401C02A90880CFE7019806990860009847
:101C20000699C86007B0704710B586B0059004A843
:101C30000170039202930078012806D1FFE7029A0F
:101C4000059948681043486005E0029A059948687C
:101C500090434860FFE705988068009001A9002044
:101C60000880FFE701A800880F281DD8FFE701A81A
:101C700001880298C840C00780B1FFE701A8018829
:101C8000490003228A4000999143009103990088FA
:101C900040008140009808430090FFE7FFE701986B
:101CA000401C01A90880DDE700980599886006B00E
:101CB00010BD704780B582B0014601A80170007860
:101CC000022807D1FFE75348032140F20042FFF703
:101CD0003FFDFFE701A80078032807D1FFE74D4843
:101CE000032140F60002FFF733FDFFE701A800786B
:101CF000042807D1FFE74748032141F20002FFF71C
:101D000027FDFFE701A80078052807D1FFE7414834
:101D1000032142F20002FFF71BFDFFE702B080BD86
:101D200080B584B0024603A8027002AA1180007830
:101D300001280DD1FFE702A802883B48002101914C
:101D400000F0E6F9019A3748114600F0E1F911E098
:101D500003A8007868B9FFE702A802882E4800218E
:101D6000009100F0D5F9009A2D48114600F0D0F905
:101D7000FFE7FFE704B080BD80B58CB001460BA83B
:101D80000170007801281ED1FFE722480790082142
:101D900044F20002FFF7DCFC079806210222FFF75D
:101DA000D7FC0021089100911E48482209921B4B44
:101DB0000A9300F007FA0899099A0A9B00911A48B9
:101DC00000F000FA24E00BA8007800BBFFE7114800
:101DD00002900A21039140F20012FFF7B9FC029829
:101DE000039940F20022FFF7B3FC00210491009117
:101DF000F24848220592094B069300F0E3F9049952
:101E0000059A069B0091EE4800F0DCF9FFE7FFE73A
:101E10000CB080BD0004004800440140C40900002B
:101E200000480140004001400020004080B5AAB0B9
:101E300000200F9029900121289127912590904909
:101E4000229120901F901E901A9019901890179030
:101E500016901590149013908A4908701290119062
:101E60007F20C0051090FFF7CDFA0220032140F239
:101E70009012FFF767F9FFE7FFF7B4FA05210B911E
:101E80000846FEF7BFFFFEF759FB00220D927E4B7E
:101E90000C93FEF7C9FA0D9A7C4B0E93FEF75CFA91
:101EA000FEF78EFB0B991B900120FEF7ABFFFEF7B0
:101EB00045FB0C9B0D9AFEF7B7FA0D9A0E9BFEF7A9
:101EC0004BFAFEF77DFB1D901B991D9A8B1A64201F
:101ED00058438918491C90FBF1F0219021986528FE
:101EE00003DBFFE764202190FFE721986421C943C9
:101EF000884204DCFFE76320C0432190FFE721987C
:101F00004043FEF71BFB624A624BFEF725FA0022B4
:101F1000614BFEF76FF9FEF78BFB12902198FEF7ED
:101F2000ABFD142803DBFFE75D48109011E021981A
:101F3000FEF7A2FDFEF702FB00220A92574BFEF7C6
:101F400073FA0A9A544BFEF755F9FEF771FB10909D
:101F5000FFE72198FEF790FD062803DBFFE75248D4
:101F6000119002E04F481190FFE7129800902198DD
:101F70000190FEF7D1FA01460098FEF7BFF8FEF790
:101F800043FB089009911198FEF73EFB0246019829
:101F900006920791FEF7D2FA049005912098FEF779
:101FA000CDFA424A424BFEF7D7F9029003911F98AF
:101FB000FEF7C4FA3F4A404BFEF7CEF902460298BC
:101FC0000B460399FEF716F9024604980B4605994D
:101FD000FEF710F9024606980B460799FEF7BCF982
:101FE000024608980B460999FEF704F90022334B84
:101FF000FEF7B2F9FEF7E4FA259022982599401AE7
:102000002490229825994018239020981F90219879
:10201000209024982A49884203DBFFE7C84824908F
:10202000FFE72498002803D5FFE700202490FFE76E
:1020300023982349884203DBFFE7C1482390FFE749
:102040002398002803D5FFE700202390FFE724987A
:10205000FEF762FA1099FEF751F8FEF783FA81B2A3
:102060000020FFF75DFE2398FEF756FA1099FEF761
:1020700045F8FEF777FA81B20120FFF751FEFBE643
:10208000381800003800002000FEAF400000594022
:1020900092CB7F48BF7D6D3F0000F03F000044C001
:1020A000CDCCCC3E0000A0406666E63F6666666624
:1020B0006666E6BF333333333333D3BF0000494062
:1020C0001127000080B584B00A46014603A801909C
:1020D000017002A90A70007840B20978FEF788FC06
:1020E0000198007840B2FEF769FC04B080BD0000A2
:1020F00082B00190009101980099034A1140084371
:102100000249086002B0704780FFFF1F08ED00E041
:1021100080B584B00390029101A8028003987D49A4
:10212000884205D1FFE7824800886946088036E08A
:1021300003987949884205D1FFE77D484088694680
:1021400008802BE003987549884205D1FFE778485D
:1021500080886946088020E003987149884205D14B
:10216000FFE77348C0886946088015E003986D4909
:10217000884205D1FFE76E480089694608800AE079
:1021800003986949884205D1FFE769484089694653
:102190000880FFE7FFE7FFE7FFE7FFE7FFE70398B8
:1021A00002A9098801AA13886A4612885A43644B17
:1021B00092FBF3F200F022FE04B080BD0044014027
:1021C00000480140B0B590B0044614980F940EAC8E
:1021D00021800DA90A800CA90B800BA908800F98FB
:1021E0004C49884207D1FFE7544800F0EDFA0C98BB
:1021F0004F49088042E00F984749884207D1FFE7DE
:102200004D4800F0E1FA0C984949488035E00F98B4
:102210004249884208D1FFE740F2087000F0D4FA42
:102220000C984349888027E00F983D49884208D19F
:10223000FFE740F2106000F0C7FA0C983C49C880F4
:1022400019E00F983749884207D1FFE7394800F075
:10225000BBFA0C98364908810CE00F983249884245
:1022600007D1FFE7314800F0AFFA0C9830494881B8
:10227000FFE7FFE7FFE7FFE7FFE7FFE70F9800F063
:1022800049FE0D98401E07A9088000200290488052
:1022900010228A800CAA00921288521E0992C880CD
:1022A00008730F9800F0DAFE029804AA90800121CA
:1022B00003911180D0805080108150810F980EA919
:1022C0000191098800F0D0FB009A01990F980988C4
:1022D0000BAB1B8812885A43194B92FBF3F200F0A8
:1022E0008DFD01990F980988602200F037FD019952
:1022F000029A0F98098800F0ABFD03990F9800F03F
:102300003EFF0F9800F0A6FB0F9800F080FE10B083
:10231000B0BDC046002C0140000400400020004039
:102320000040014000440140004801401206000006
:102330003A00002011060000010700000B06000013
:102340001027000082B0014601A801705D4A1168A3
:102350004CF20003994311605B4A11685B4B1940D2
:10236000116000780090092800D9A7E000998A0040
:1023700001A080188746C04600F012B800F01CB8D3
:1023800000F026B800F02EB800F03BB800F046B8D8
:1023900000F056B800F061B800F071B800F07CB8F9
:1023A000494908680122120490430860086840F215
:1023B00000129043086082E0434908680122120439
:1023C00010430860086840F200129043086076E00D
:1023D000F64908680860F949086840F2001210439D
:1023E00008606CE0F14908680860F4490868012257
:1023F000D20710430860086840F2001210430860DA
:102400005DE0EA49086844F2000210430860EB49C5
:10241000086840F200121043086050E0E349086881
:1024200044F2000210430860E44908680122D20720
:1024300010430860086840F20012104308603EE054
:10244000DA49086848F2000210430860DB4908686E
:1024500040F200121043086031E0D449086848F2A5
:10246000000210430860D54908680122D2071043D2
:102470000860086840F20012104308601FE0CB4972
:1024800008684CF2000210430860CC49086840F22A
:1024900000121043086012E0C44908684CF20002C0
:1024A00010430860C54908680122D207104308603C
:1024B000086840F200121043086000E0FFE702B035
:1024C0007047C0460410024030100240FFFEFE7FFD
:1024D0009DB01CA90870002002901B901A901990C2
:1024E00018901790169015901490139012901190C8
:1024F00010900F900E900D900C90AA490B91AA4944
:102500000A91099008900791069005910490A748B8
:1025100000680C21084080081B901B98039040B174
:10252000FFE70398012807D0FFE70398022806D0A9
:1025300044E0A148179044E09F48179041E09B4831
:1025400001680F2292041140890C11910068012149
:10255000C9060840C00E10901098012804D1FFE76A
:102560001198113011900BE011980F2803D1FFE75B
:102570001020119003E01198801C1190FFE7FFE7F5
:102580008A480068012109040840000C0F900F9848
:1025900070B1FFE7874800680F210840401C0E908B
:1025A0000E998548B0FBF1F111984843179004E06B
:1025B00011997F4848431790FFE702E07E48179043
:1025C000FFE77A480168C9B209090D910D9A08A977
:1025D000895C0C9117990C9AD1401691016840F2D0
:1025E00000721140090A0D910D9A06A9895C0C919F
:1025F00016990C9AD1401591006843F600010840E5
:10260000C00A0D900D9904A8405C0C9016980C9986
:10261000C84014901CA800780190052800D9BCE09F
:1026200001998A0001A080188746C04600F00AB8C8
:1026300000F00BB800F00CB800F00DB800F00EB8C8
:1026400000F07DB817981890A8E016981890A5E0AB
:1026500015981890A2E0149818909FE057480068C9
:1026600040F20011084088420FD0FFE7534800684D
:10267000012109040840884203D0FFE75148139024
:1026800002E04F481390FFE756E0D348006880B25D
:10269000800B1A9049480068C00F19901A98009052
:1026A000032847D800998A0001A080188746C046B1
:1026B00000F006B800F012B800F01EB800F02CB818
:1026C000199820B9FFE714984008139005E0169870
:1026D0000321B0FBF1F01390FFE72CE0199820B92B
:1026E000FFE714988008139005E016980521B0FBC9
:1026F000F1F01390FFE71EE0199830B9FFE7149846
:102700000621B0FBF1F0139005E016980721B0FB0D
:10271000F1F01390FFE70EE0199820B9FFE7149845
:10272000C008139005E016980921B0FBF1F0139052
:10273000FFE700E0FFE7FFE7139818902EE01F483F
:102740000068800718B9FFE71498129022E01B4830
:10275000006803210840012803D1FFE71798129071
:1027600017E01648006803210840022804D1FFE75B
:1027700048F2000012900BE0104800680321084066
:10278000032803D1FFE70C48129000E0FFE7FFE7C2
:10279000FFE7FFE71298189000E0FFE718981DB0D8
:1027A0007047C046060708090102030404100240EE
:1027B00000093D002C10024000127A003010024047
:1027C000003FAB01809FD50081B001466846018083
:1027D00000881F220146114001238B4081097B4A5A
:1027E00088581843885001B07047C04681B00146F0
:1027F0006846018000881F220146114001238B405A
:102800008109724A88589843885001B07047C04681
:1028100081B001466846018000881F2201461140B0
:1028200001238B408109694A88581843885001B0B8
:102830007047C04680B50920C006032148F2000257
:10284000FEF786FF80BD000085B00A4604A9087027
:1028500003A8027002789207130F0F229A40D24306
:102860000292097802789207120F91400191007844
:1028700080080090032835D800998A0001A08018AC
:102880008746C04600F006B800F00EB800F016B853
:1028900000F01EB8029A1849086810400860019AB2
:1028A0000868104308601EE0029A12490868104048
:1028B0000860019A08681043086014E0029A0C4905
:1028C000086810400860019A0868104308600AE030
:1028D000029A0649086810400860019A0868104387
:1028E000086000E0FFE705B07047C04614000140F3
:1028F000100001400C0001400800014084B000209D
:1029000003900290314908680122120410430860C4
:10291000FFE70398401C03902C48006801214904FC
:1029200008400290FFE702990020019039B9FFE7C3
:1029300003982749401A411E88410190FFE70198FA
:10294000C0070028E5D1FFE7204800688003002881
:1029500002D4FFE7FFE7FEE71E49086802221043A2
:102960000522904308601C490091086808600868C7
:102970000860086808600868184A1040086008681D
:102980001D22120410430860104908680122120633
:1029900010430860FFE70D4800688001002801D45B
:1029A000FFE7F8E70C4908680322904308600868CD
:1029B000022210430860FFE707480068000700286C
:1029C00001D4FFE7F8E704B07047C04600100240AA
:1029D000FFFF00000020024004100240FFFFC2770A
:1029E00080B5FFF78BFF80BD81B000900098042870
:1029F00006D1FFE70649086804221043086005E095
:102A000003490868042290430860FFE701B070475B
:102A100010E000E080B50420C043FFF7E5FF084860
:102A20000068FDF784FD0749FDF7A5FB0146064850
:102A3000016000680549FDF761FB0549086080BD3C
:102A4000000000200024F44A2800002000007A44FE
:102A50002400002081B00090009908688022104373
:102A6000086001B07047000084B0039002A80180A4
:102A7000019200880090032800D964E100998A003F
:102A800001A080188746C04600F006B800F063B881
:102A900000F0CBB800F023B90399086A01229043F3
:102AA000086203998869032290438861019802882B
:102AB0000399086A104308620399086A0222904346
:102AC0000862019882880399086A10430862039893
:102AD0009E4988420FD0FFE703989D4988420AD05B
:102AE000FFE703989B49884205D0FFE703989A497E
:102AF00088422FD1FFE70399086A042290430862B5
:102B0000019842880399086A104308620399086A89
:102B10000822904308620198C2880399086A10430A
:102B200008620399486840F2001290434860019897
:102B3000028903994868104348600399486840F245
:102B400000229043486001984289039948681043E5
:102B50004860FFE7F8E00399086A10229043086292
:102B60000399886940F20032904388610198008897
:102B700002010399086A104308620399086A202237
:102B8000904308620198808802010399086A104303
:102B9000086203986D49884233D1FFE70399086AB8
:102BA0004022904308620198408802010399086A14
:102BB000104308620399086A8022904308620198D2
:102BC000C08802010399086A1043086203994868A3
:102BD00040F20042904348600198008982000399C6
:102BE0004868104348600399486840F600029043E3
:102BF0004860019840898200039948681043486002
:102C0000FFE70398F74988420ED1FFE70399486828
:102C100040F2004290434860019800898200039985
:102C2000486810434860FFE78EE00399086A40F265
:102C30000012904308620399C86903229043C86157
:102C40000198008802020399086A104308620399F8
:102C5000086A40F2002290430862019880880202CC
:102C60000399086A104308620398DD49884235D108
:102C7000FFE70399086A40F2004290430862019816
:102C8000408802020399086A104308620399086A9F
:102C900040F60002904308620198C088020203993E
:102CA000086A104308620399486841F200029043A1
:102CB0004860019800890201039948681043486000
:102CC0000399486842F200029043486001984089A5
:102CD00002010399486810434860FFE734E0039914
:102CE000086A41F20002904308620399C86940F201
:102CF00000329043C8610198008802030399086A72
:102D0000104308620399086A42F200029043086285
:102D10000198808802030399086A104308620398A7
:102D2000AF4988420ED1FFE70399486844F2000298
:102D300090434860019800898201039948681043D4
:102D40004860FFE700E0FFE704B07047002C014057
:102D500000400140004401400048014084B003901D
:102D600002A8018001A90A8000880090032841D8A8
:102D700000998A0001A080188746C04600F006B876
:102D800000F010B800F01CB800F026B8039988696C
:102D900070229043886101A80288039988691043D2
:102DA000886128E00399886947F2000290438861AE
:102DB00001A80088020203998869104388611AE01B
:102DC0000399C86970229043C86101A802880399D9
:102DD000C8691043C8610EE00399C86947F2000250
:102DE0009043C86101A8008802020399C869104392
:102DF000C86100E0FFE704B07047000084B00390B2
:102E000002A8018001920088009003281CD8009934
:102E10008A0001A08018874600F006B800F008B8C4
:102E200000F00AB800F00CB80198039948630CE070
:102E300001980399886308E001980399C86304E046
:102E400001980399086400E0FFE704B070470000B0
:102E500084B0039002A8018001A90A800088009034
:102E6000032841D800998A0001A080188746C046EF
:102E700000F006B800F010B800F01CB800F026B85A
:102E80000399886908229043886101A80288039900
:102E900088691043886128E00399886940F6000238
:102EA0009043886101A80088020203998869104351
:102EB00088611AE00399C86908229043C86101A893
:102EC00002880399C8691043C8610EE00399C86974
:102ED00040F600029043C86101A8008802020399ED
:102EE000C8691043C86100E0FFE704B0704782B0D2
:102EF0000190002000900198406A0090009802B074
:102F0000704782B00190684601800088019948624C
:102F100002B0704780B58AB0099009980890894935
:102F2000884226D0FFE708982C49884229D0FFE73D
:102F30000898854988422CD0FFE708988049884244
:102F40000FD0FFE70898814988422BD0FFE7089807
:102F50007F4988422FD0FFE708987E49884232D0C7
:102F600039E025480790FFF753FC0798FFF73EFC30
:102F700032E020480690FFF74BFC0698FFF736FC3E
:102F80002AE01B480590FFF743FC0598FFF72EFC4D
:102F900022E040F208400490FFF73AFC0498FFF763
:102FA00025FC19E040F210300390FFF731FC039844
:102FB000FFF71CFC10E00D480290FFF729FC029877
:102FC000FFF714FC08E008480190FFF721FC019886
:102FD000FFF70CFC00E0FFE70AB080BD00100040E6
:102FE000002C0140004001401203000011030000CA
:102FF00004040000010400000B03000081B00090F5
:103000000099086801229043086001B0704781B0C0
:1030100000900099086801221043086001B07047D1
:1030200082B0019000910098C0430199086102B0FC
:10303000704783B00190009101980069009908429F
:1030400004D0FFE702A90120087003E002A90020D4
:103050000870FFE702A8007803B0704782B00190C3
:10306000009100980088019988620198344988424B
:1030700005D0FFE701983349884212D1FFE7019953
:103080000868702290430860009842880199086897
:10309000104308600098828801990868104308600E
:1030A000FFE7009880680199C86201982449884226
:1030B00019D0FFE701982349884214D0FFE701980F
:1030C000214988420FD0FFE70198204988420AD061
:1030D000FFE701981E49884205D0FFE701981D4986
:1030E00088420DD1FFE70199086840F20032904311
:1030F00008600098C2880199086810430860FFE7DB
:1031000001980F4988420FD0FFE701980F49884284
:103110000AD0FFE701980E49884205D0FFE70198E1
:103120000C49884205D1FFE70098007B01990863AC
:10313000FFE70199486901221043486102B07047D6
:10314000002C0140000400400020004000400140ED
:10315000004401400048014082B001900091009A73
:103160000199C8681043C86002B0704782B00190EE
:1031700000910098C0430199086102B0704782B085
:103180000190684601700078012807D1FFE7019996
:10319000486C48F200021043486406E00199486C0C
:1031A00048F2000290434864FFE702B07047000015
:1031B00080B582B0B2480090042101914022FEF710
:1031C000C7FA009801998022FEF7C2FA02B080BDCA
:1031D00080B584B003900398E121490201910090E9
:1031E0000920C20640F2002140F20043104600F0E0
:1031F00003F804B080BD000010B584B0079C069CA5
:10320000039002910192009303980921C906884214
:1032100004D1FFE76A48FFF7D7FA1DE00398984901
:10322000884204D1FFE76548FFF7CEFA13E0039820
:103230005E49884204D1FFE75F48FFF7C5FA09E01D
:1032400003985B49884204D1FFE75A48FFF7BCFA6C
:10325000FFE7FFE7FFE7FFE70398ED4988420AD160
:10326000FFE70298402806D1FFE70398029A002161
:10327000FEF7E8F9FFE703980921C90688420CD157
:10328000FFE7029840F20021884206D1FFE7039849
:10329000029A0121FEF7D6F9FFE70398029B02216B
:1032A0000122FEF77AFC0398029B00210322FEF71D
:1032B000BBFC01980921C906884204D1FFE74048B8
:1032C000FFF782FA1DE00198D149884204D1FFE757
:1032D0003A48FFF779FA13E001983449884204D15B
:1032E000FFE73548FFF770FA09E001983049884256
:1032F00004D1FFE72F48FFF767FAFFE7FFE7FFE793
:10330000FFE70198C24988420AD1FFE70098802868
:1033100006D1FFE70198009A0021FEF793F9FFE735
:1033200001980921C90688420CD1FFE7009840F2B4
:103330000041884206D1FFE70198009A0121FEF77B
:1033400081F9FFE70198009B02210122FEF725FC8D
:103350000198009B00210322FEF766FC06988D4928
:10336000884204D1FFE71848FFF72EFA09E00698D3
:103370008749884204D1FFE71248FFF725FAFFE7A3
:10338000FFE7069800F0E2F80698079900F086F843
:103390000698042100F00DF90698082100F018F9AC
:1033A000069800F0FDF804B010BDC04600080048C3
:1033B0000014004816050000130500001205000067
:1033C00011050000110700000E06000080B58AB04C
:1033D00040F20060FFF7F8F98D48009004210122C7
:1033E0000492FEF7B5F90098049900220592FEF7C1
:1033F00089F90920C0060221019140220292FEF7BC
:10340000A7F905990720FEF75DFE04991120FEF744
:1034100059FE05980621FFF717FA019A02980599B7
:10342000FEF76EF80298FEF7E3F80298FEF7D6F87A
:103430001448FFF7C9F914480390FFF76BFD039890
:10344000059A06A947230B804A808A800F4B089370
:10345000CA800A73FFF702FE0398FFF7FBFA03988E
:103460000499FFF783FE03980499FFF775FE05980A
:103470000749086007490860074908700AB080BD1D
:1034800000040048040700000010004087130000FB
:10349000340000202C0000203000002080B588B0CF
:1034A00007900691002005900490039002900798E1
:1034B0000190374988420AD0FFE701983549884290
:1034C0000AD1FFE70520FFF703F8059005E0022089
:1034D000FEF7FEFF059000E0FFE707980068000494
:1034E000002818D5FFE70598400006994A0880187B
:1034F000B0FBF1F002900298134908400490029842
:103500000007400F039004A8008803A90988084316
:103510000799C86016E0059806994A088018B0FB1C
:10352000F1F00290029808490840049002980F2197
:103530000840039004A8008803A909880843079954
:10354000C860FFE708B080BDF0FF000080B584B020
:103550000390039802900E4988420DD0FFE702982D
:103560000C49884210D1FFE70C480190FFF750F951
:103570000198FFF73BF908E007480090FFF748F98A
:103580000098FFF733F900E0FFE704B080BDC046C4
:103590000044004000380140110400000E03000008
:1035A00081B000900099086801221043086001B0C2
:1035B000704782B0019000910199086804229043FD
:1035C0000860009A019908681043086002B07047CB
:1035D00082B0019000910199086808229043086028
:1035E000009A019908681043086002B07047000013
:1035F00080B582B0064808211022FEF7A9F8002104
:1036000000912C4809221423FEF7DCFD02B080BD96
:103610000004004880B586B005900598407804A95C
:1036200008700598007848700598807888700020A8
:103630000390FFE70398022839D8FFE7082002909B
:10364000FFE7029870B3FFE7039904A8405C029972
:10365000491EC840C00730B1FFE716480021164A8E
:10366000FEF756FD06E01348002140F2E832FEF76F
:103670004FFDFFE70F48FFF7CAFCFFE70D480121A8
:10368000FFF7D7FC08B9FFE7F8E70A480190FFF712
:10369000B5FC01980121FFF7C3FCFFE70298401E2B
:1036A0000290CEE7FFE70398401C0390C2E706B004
:1036B00080BDC04600040040B80B00002021020C71
:1036C00001D010211046020A01D010460839020923
:1036D00001D01046091F820801D01046891E4208F9
:1036E00001D0881E7047081A704702E008C8121FF0
:1036F00008C1002AFAD170477047002001E001C1DB
:10370000121F002AFBD17047283700080000002054
:1037100020000000EA36000848370008200000209A
:1037200030040000FA36000800A24A040000FF003E
:10373000FFFF00FF00FF00FFFF0000A7C8E2FFFF40
:08374000FFFFFF000000000084
:04000005080000CD22
:00000001FF
